:1000000065EF02F0F76A140FF66E000EF722090092
:10001000F5501200280C01064D696E757465733A2F
:100020000000486F75723A00446174653A004D6F84
:100030006E74683A0000596561723A00323000000F
:10004000EA6A320EE96EEF500DE0020E016E006AB0
:10005000002EFED7012EFBD7970E006E002EFED786
:10006000EF2EF3D7000C39B002D08C9601D08C86DD
:10007000959639B202D08C9801D08C88959839B475
:1000800002D08C9A01D08C8A959A39B602D08C9C79
:1000900001D08C8C959C00008C84959400D000D06D
:1000A0008C949594000C3A6A9586000E83B6010EE6
:1000B0003A129588000E83B8010E006ED890003673
:1000C00000503A12958A000E83BA010E006E003677
:1000D0000036FC0E001600503A12958C000E83BCC0
:1000E000010E006E003600360036F80E0016005085
:1000F0003A123AC001F0000C95869588958A958C45
:100100008C82959200008C8495940000CCDF01C015
:1001100039F08C94959400008C84959400D0C3DFC2
:1001200001C038F08C94959495969598959A959CE5
:100130003938006EF00E001600503810016EA4EF32
:1001400000F08C909590D8D701C038F001BEFBD755
:10015000365202E18C9001D08C80959000008C92F8
:10016000959200008C9495943738386E0F0E38169F
:1001700038C039F078DF37500F0B386E396E73DFC7
:10018000000C95969598959A959C95949590959236
:100190008C9095908C9295928C9495940F0E326ED3
:1001A0004FDF010E2F6E2F50030808E3030E396E48
:1001B0005ADF050E326E44DF2F2AF5D7020E396E54
:1001C00052DF2F6A2F5003080EE3036A2F50F2CF3D
:1001D00030F0F29E17DF30BEF28E306E366A376E28
:1001E000B0DF2F2AEFD7B8EF02F0332C01D003D0C5
:1001F000400E346E01D0346A010E325C3426345025
:100200008009356E366A376E9CDF000C31500C0A5F
:1002100005E0060A0BE0020A0FE013D0366A010E71
:10022000376E8FDF020E326E0BDF11D0010E326E91
:10023000020E336EDADF0BD0366A100E376E81DFB6
:1002400006D0010E366E31C037F07BDF00D0000CD7
:100250000900F5520CE0F6CF2FF0F7CF30F0F5CFD4
:1002600031F0D4DF2FC0F6FF30C0F7FFF1D7000C1C
:100270003250016A315C03E231C000F00CD0006AF8
:10028000080E336E313600363250005CD8B0006E46
:100290000136332EF7D7000C01502FC031F0640E19
:1002A000326EE6DF00C02FF00150300E07E130A2C1
:1002B0000CD030B60AD030B8200E03D0309630982B
:1002C0003080012601C031F0A1DF2FC031F00A0ECD
:1002D000326ECEDF00C02FF00150300E06E130B696
:1002E00008D030A006D030B8200E012601C031F071
:1002F0008DDF300E2F262FC031F088DF000C080E66
:10030000016E00D08A92939200D0000031368A901C
:10031000D8B09380D8A09390938281A2FED7012E6B
:10032000F0D700D08A9293920000938000D0000012
:1003300000D00000938281A2FED7016A00D00000A5
:1003400081B001808A9293928A909390000C93805E
:1003500000D0938200D000008A90939000D08A92BF
:100360009392D00E316ECBDF2FC031F0C8DF30C09A
:1003700031F0C5DF93900000938281A2FED700D0B8
:1003800000D00000938000D0000C080E306E00C03A
:1003900031F0938000D00000938281A2FED781B01B
:1003A000D88081A0D890013600D093928A92302EC6
:1003B000F0D7938000D000008A903150D8A4939059
:1003C0000000938281A2FED700D08A92939200D03F
:1003D00000008A909390000CEF520FE0EACF30F0CB
:1003E000E9CF2FF0EFCF31F011DF30C0EAFF2FC09F
:1003F000E9FFE92AD8B4EA2AEFD7000C2250700BA3
:10040000006E0038236E0F0E231622162450700B38
:10041000006E0038256E0F0E251624162650300B60
:10042000006E0038276E0F0E271626162850300B48
:10043000006E0038296E0F0E291628162A50100B50
:10044000006E00382B6E0F0E2B162A162C50F00B58
:10045000006E00382D6E0F0E2D162C16300E222435
:10046000106E300E23240F6E300E24240D6E300ECD
:1004700025240C6E300E26240A6E300E2724096EB9
:10048000300E2C24206E300E2D241F6E300E2A24A8
:100490001B6E300E2B241A6E300E2824186E300E70
:1004A0002924176E010E326E336E9FDEEA6A040E47
:1004B000E96E92DF010E326E020E336E96DEEA6A4C
:1004C000120EE96E89DF64EF04F0F86AD09EEA6AE2
:1004D000E96A700ED36ED350C150C00B0F09C16EC4
:1004E000070EB46E540E046E490E056E4D0E066E68
:1004F000450E076E3A0E086E200E096E200E0A6E2B
:100500003A0E0B6E200E0C6E200E0D6E3A0E0E6E15
:10051000200E0F6E200E106E116A440E126E410EE8
:10052000136E540E146E450E156E3A0E166E200E96
:10053000176E200E186E2F0E196E200E1A6E200EDA
:100540001B6E2F0E1C6E320E1D6E300E1E6E200E98
:100550001F6E200E206E216A700ED36ED350C150D4
:10056000C00B0F09C16EF19E8A6A0F0E936E09D6F9
:100570000C0E316E4BDE81B45CD125500A0DF35068
:10058000242627500A0DF350262629500A0DF35031
:1005900028262B500A0DF3502A262D500A0DF35011
:1005A0002C260C0E316E32DE050E326E010E336ECD
:1005B0001CDE180EF66E000EF76E4ADEC80E326EA6
:1005C0003FDD81B601D0242A24503B0801E2246A91
:1005D000080E326E020E336E08DE24C02FF0010EBC
:1005E000306E5ADE81B401D004D0C80E326E28DDE0
:1005F000E8D70C0E316E0ADE060E326E010E336E37
:10060000F4DD220EF66E000EF76E22DEC80E326E9C
:1006100017DD81B601D0262A2650170801E2266A86
:10062000080E326E020E336EE0DD26C02FF0010E92
:10063000306E32DE81B401D004D0C80E326E00DDDF
:10064000E8D70C0E316EE2DD060E326E010E336E0F
:10065000CCDD280EF66E000EF76EFADDC80E326E97
:10066000EFDC81B601D0282A28501F0802E2010ED3
:10067000286E080E326E020E336EB7DD28C02FF0E2
:10068000010E306E09DE81B401D004D0C80E326E86
:10069000D7DCE7D70C0E316EB9DD060E326E010ED7
:1006A000336EA3DD2E0EF66E000EF76ED1DDC80E92
:1006B000326EC6DC81B601D02A2A2A500C0802E22A
:1006C000010E2A6E080E326E020E336E8EDD2AC0C7
:1006D0002FF0010E306EE0DD81B401D004D0C80EE1
:1006E000326EAEDCE7D70C0E316E90DD060E326E48
:1006F000010E336E7ADD360EF66E000EF76EA8DD53
:10070000070E326E020E336E70DD3C0EF66E000E7A
:10071000F76E9EDDC80E326E93DC81B601D02C2AB6
:100720002C50630801E22C6A090E326E020E336E01
:100730005CDD2CC02FF0010E306EAEDD81B475D0C3
:1007400024C031F00A0E326E93DD01382F6EF00EA8
:100750002F1624C031F00A0E326E8ADD00502F248D
:10076000246E26C031F00A0E326E82DD01382F6E03
:10077000F00E2F1626C031F00A0E326E79DD0050D1
:100780002F24266E28C031F00A0E326E71DD01383A
:100790002F6EF00E2F1628C031F00A0E326E68DD73
:1007A00000502F24286E2AC031F00A0E326E60DD10
:1007B00001382F6EF00E2F162AC031F00A0E326E5D
:1007C00057DD00502F242A6E2CC031F00A0E326EF5
:1007D0004FDD01382F6EF00E2F162CC031F00A0EAF
:1007E000326E46DD00502F242C6E010E2F6E24C079
:1007F00030F0ADDD020E2F6E26C030F0A8DD040E05
:100800002F6E28C030F0A3DD050E2F6E2AC030F009
:100810009EDD060E2F6E2CC030F099DD2F6A306AF7
:1008200096DDC80E326E0CDC04D0C80E326E08DCC9
:1008300074D7938000D0938200D000008A90939068
:1008400000D08A929392D00E316E59DD316A57DD15
:10085000938000D0938200D0000081A2FED78A90BE
:10086000939000D08A929392D10E316E48DD010EA2
:10087000006E8BDD01C022F0010E006E86DD01C02E
:1008800024F0010E006E81DD01C026F0010E006E25
:100890007CDD01C02EF0010E006E77DD01C028F076
:1008A000010E006E72DD01C02AF0006A6EDD01C02B
:1008B0002CF093900000938281A2FED700D000D04C
:0C08C0000000938000D09AD556D60300AB
:020000040030CA
:0E0000003FC83E1E000781000FC00FE00F40FA
:00000001FF
;PIC18F4550
;CRC=91E2  CREATED="10-Dec-20 17:43"
