:1000000045EF02F00000000000EF00F000000000EB
:0A0010000000000000000000F3D71C
:10001C000F0E0C6E470E0D6E0D2EFED70C2EFCD750
:06002C00000000001200BC
:0A003200210E0D6E0D2EFED71200F8
:06003C00000000001200AC
:10004200C7B409D01F0EC514016E0150000A03E1A6
:0A005200010E006E01D0006A1200DA
:10005C0000019BBF02D0839E01D0838E9BBD02D03A
:10006C00839C01D0838C9BBB02D0839A01D0838A62
:10007C009BB902D0839801D083888DB102D0848043
:10008C0001D084908484D4DF84949BB702D0839E67
:10009C0001D0838E9BB502D0839C01D0838C9BB303
:1000AC0002D0839A01D0838A9BB102D0839801D06D
:1000BC0083888DB102D0848001D084908484B8DF91
:0E00CC0084948DA102D0A4DF01D0ADDF12001C
:1000DA009E9699C0C9FFC7A401D0FDD79EB601D08C
:1000EA00FDD7C5BC02D0006A03D0C584020E006EDB
:0200FA001200F2
:0A00FC00C582C5A201D0FDD7120095
:100106000001996B9A6B9A51120802E199518E0877
:1001160008E394DF005201E004D00001994B9A2BCA
:10012600F2D70001120E9A5D02E18F0E995D03E38C
:100136007B0E006E05D0C580C5A001D0FDD7006A34
:020146001200A5
:0E01480000018D9199C09BF085DF8D81120022
:10015600086A080E0C6E003408360450085ED8B0E3
:0E01660002D00826D89000360C2EF5D71200D5
:04017400C58412002C
:100178009E96C5869EB601D0FDD7C9CF01F0000175
:100188009951000A02E1C58A01D0C59A9E96C58890
:0C0198009EB601D0FDD701C000F012009F
:1001A40010D0800E0001946F1AD0C00E946F17D037
:1001B400940E946F14D0D40E946F11D0800E946F5B
:1001C4000ED000019451010AECE09451020AEDE0D2
:1001D4009451030AEDE09451040AEDE0EFD795053C
:1001E400006E9451002600C094F000C09BF034DFF0
:1001F4008D91986B98519625E96E000E9721EA6EC1
:10020400EE520BE098519625E96E000E9721EA6EA6
:0E021400EECF99F097DF982BEDD78D81120079
:0E0222000F0E00019415006E300E0026120023
:100230000900F5CFE6FF0006FBE10106F9E1120037
:10024000939093928A908A9293809382C79EC79C40
:06025000380EC66E12001C
:10025600969496909598959A959C959E849484905C
:10026600839E839C839A8398D6DED5DED4DE838AEA
:1002760083888484E0DE8494CEDE8484DCDE849409
:10028600CADE8484D8DE8494C6DE83988484D3DE72
:100296008494C1DE8484CFDE8494839A838E84849E
:1002A600CADE8494B8DE839E83888484C4DE849404
:1002B60083988484C0DE8494AEDE8484BCDE849419
:1002C60083888484B8DE8494A6DE83988484B3DE2F
:1002D6008494838E838C838A83888484ACDE84941E
:0802E6009ADE00018D81120077
:1002EE0094C000F00032009E0032009E0032009E4C
:0A02FE000032009E300E00261200B0
:100308000001956B945109081BE20A0E046E94C013
:1003180000F01DDF00C095F000C095F0953795916D
:100328009537959195379591953795910A0E046E65
:1003380094C000F00CDF08C000F00050951302D004
:0A03480094C095F095C000F012007B
:1003520094C000F00032009E0032009E0032009EE7
:100362000032009E0A0E0002F3CF01F00F0E0001D0
:0A0372009415006E015000261200E1
:10037C00C4DED00E0001996FAADE94C099F0A7DEFE
:10038C00B7DED10E0001996FA2DE0001996BEEDE93
:0C039C0000C095F0E9DE95C000F01200F2
:1003A800000E0001951902E1010E94191BE18380EA
:1003B800839283848396B60E0C6ED00E0D6E0D2E2E
:1003C800FED70C2EFCD7000083908382839483860B
:1003D800B60E0C6ED00E0D6E0D2EFED70C2EFCD761
:1003E800000041D0000E951902E1020E94191BE19C
:1003F8008390838283848396B60E0C6ED00E0D6E26
:100408000D2EFED70C2EFCD7000083808392839498
:100418008386B60E0C6ED00E0D6E0D2EFED70C2EEA
:10042800FCD7000020D0000E951902E1030E9419A4
:100438001AE18380838283848386B60E0C6ED00E85
:100448000D6E0D2EFED70C2EFCD7000083908392E4
:1004580083948396B60E0C6ED00E0D6E0D2EFED7BD
:080468000C2EFCD7000012006D
:100470004ADED00E0001996F30DE94C099F02DDE77
:0A04800095C099F02ADE76DE120026
:10048A0081EC06F00F0EC16E959095929594959613
:10049A00FF0E926E730ED36E140EC86ECCDED6DECD
:1004AA000C0E9B6FD6DD010E946F010E956F2C0E0C
:1004BA00966F000E976F71DE020E946F010E956FA4
:1004CA00190E966F000E976F68DE060E0B6E130EEE
:1004DA000C6EAD0E0D6E0D2EFED70C2EFCD70B2E0C
:1004EA00FAD700000000010E9B6FB3DD886B80B263
:1004FA000FD04E0E0C6EEB0E0D6E0D2EFED70C2E7F
:10050A00FCD780B205D03F2A070E3F5CD8B03F6ABD
:10051A003F52D8B4C5D180B60CD04E0E0C6EEB0E3D
:10052A000D6E0D2EFED70C2EFCD780B602D0010E12
:10053A00886F80B80CD04E0E0C6EEB0E0D6E0D2E21
:10054A00FED70C2EFCD780B802D0FF0E886F3F5220
:10055A00D8B4A6D18853D8B4A3D18BD10001020E46
:10056A00946F07DF00C08BF0000E00018C6F8BC008
:10057A0094F0EADE00C08BF0000E8C6F88518B2558
:10058A00016E000E88BFFF0E8C21026E01C08BF037
:10059A0002C08CF0800E0218006E800E005C02E130
:1005AA00180E015C03E38B6B8C6B0DD0800E8C19DB
:1005BA00006E800E005C02E1000E8B5D04E2170EF5
:1005CA008B6F000E8C6F8BC094F099DE00C08BF09D
:1005DA00000E8C6F020E946F8BC095F044DF60D1D1
:1005EA00010E0001946FC5DE00C089F0000E000103
:1005FA008A6F89C094F0A8DE00C089F0000E8A6F65
:10060A0088518925016E000E88BFFF0E8A21026E6D
:10061A0001C089F002C08AF0800E0218006E800EB6
:10062A00005C02E13C0E015C02E3896B8A6B800E7E
:10063A008A19006E800E005C02E1000E895D04E2F8
:10064A003B0E896F000E8A6F89C094F058DE00C095
:10065A0089F0000E8A6F010E946F89C095F003DF4E
:10066A001FD10001946B85DE00C086F0000E0001E8
:10067A00876F86C094F068DE00C086F0000E876F30
:10068A0088518625016E000E88BFFF0E8721026EF3
:10069A0001C086F002C087F0800E0218006E800E3C
:1006AA00005C02E13C0E015C02E3866B876B800E04
:1006BA008719006E800E005C02E1000E865D04E27E
:1006CA003B0E866F000E876F86C094F018DE00C05E
:1006DA0086F0000E876F946B86C095F0C4DEE0D07A
:1006EA00040E0001946F45DE00C083F0000E000185
:1006FA00846F83C094F028DE00C083F0000E846FFC
:10070A0088518325016E000E88BFFF0E8421026E78
:10071A0001C083F002C084F0800E0218006E800EC1
:10072A00005C02E1200E015C04E3010E836F000EFF
:10073A00846F800E006E800E8419005C02E1835182
:10074A00000804E31F0E836F000E846F83C094F0C9
:10075A00D6DD00C083F0000E846F040E946F83C050
:10076A0095F081DE9DD0050E0001946F02DE00C077
:10077A0081F0000E0001826F81C094F0E5DD00C0B7
:10078A0081F0000E826F88518125016E000E88BFAC
:10079A00FF0E8221026E01C081F002C082F0800E3B
:1007AA00006E800E0218005C02E101500C0804E29F
:1007BA00010E816F000E826F800E006E800E82190C
:1007CA00005C02E18151000804E30C0E816F000E07
:1007DA00826F81C094F093DD00C081F0000E826FB9
:1007EA00050E946F81C095F03EDE5AD0060E0001C8
:1007FA00946FBFDD00C07FF0000E0001806F7FC0E4
:10080A0094F0A2DD00C07FF0000E806F88517F2532
:10081A00016E000E88BFFF0E8021026E01C07FF0BC
:10082A0002C080F0800E0218006E800E005C02E1A9
:10083A000F0E015C04E21E0E7F6F000E806F800EA9
:10084A008019006E800E005C02E11E0E7F5D04E3DB
:10085A000F0E7F6F000E806F7FC094F050DD00C0D6
:10086A007FF0000E806F060E946F7FC095F0FBDD5F
:10087A0017D03F50010AD8B471D63F50020AD8B4F3
:10088A00AFD63F50030AD8B4ECD63F50040AD8B4C6
:10089A0027D73F50050AD8B466D73F50060AA6E0C4
:1008AA000001856B80B40DD0010E176E000E186E14
:1008BA00156A166A80B405D0742B74510408D8A03E
:1008CA00746B74531CE080B60CD04E0E0C6EEB0E9B
:1008DA000D6E0D2EFED70C2EFCD780B602D0010E5F
:1008EA00856F80B80CD04E0E0C6EEB0E0D6E0D2E71
:1008FA00FED70C2EFCD780B802D0FF0E856F74533A
:10090A00D8B4A1D093D090C094F01EDD00C090F06E
:10091A00000E916F85519025016E000E85BFFF0E66
:10092A009121026E01C090F002C091F0800E02186F
:10093A00006E800E005C02E1180E015C03E3906B0E
:10094A00916B0DD0800E9119006E800E005C02E151
:10095A00000E905D04E2170E906F000E916F90C02A
:10096A0094F0CDDC00C090F0000E916F6CD08EC078
:10097A0094F0EADC00C08EF0000E8F6F85518E2550
:10098A00016E000E85BFFF0E8F21026E01C08EF030
:10099A0002C08FF0800E0218006E800E005C02E129
:1009AA003C0E015C02E38E6B8F6B800E8F19006E1A
:1009BA00800E005C02E1000E8E5D04E23B0E8E6F3B
:1009CA00000E8F6F8EC094F09ADC00C08EF0000E7D
:1009DA008F6F39D085517E25016E01C07EF0800E61
:1009EA00030A006E800E0118005C02E2010E7E6F9F
:1009FA00800E7E19006E800E010A005C02E2030E70
:100A0A007E6F7EC094F0000E7EBFFF0E956FC7DC2E
:100A1A007EC092F0000E7EBFFF0E936F14D0176A4D
:100A2A00186A83908392839483960DD07451010A35
:100A3A00D8B469D77451020A9AE07451030ACAE019
:100A4A007451040AECE0DFD08BC094F04BDC00C098
:100A5A0075F08BC094F011EC01F000C076F089C0FB
:100A6A0094F040DC00C078F089C094F011EC01F0F9
:100A7A0000C079F086C094F035DC00C07BF086C0F7
:100A8A0094F011EC01F000C07CF083C094F02ADCF1
:100A9A0000C06BF083C094F011EC01F000C06CF060
:100AAA0081C094F01FDC00C06EF081C094F011EC9C
:100ABA0001F000C06FF07FC094F014DC00C071F048
:100ACA007FC094F011EC01F000C072F08C519119C2
:100ADA0002E190518B191AE18A518F1902E18E5164
:100AEA00891914E192C094F093C095F058DC010E74
:100AFA009B6F2EEC00F0010E946F010E956F4C0E59
:100B0A00966F000E976FD2EC00F035D0010E946FFD
:100B1A00010E956F460E966F000E976FD2EC00F09D
:100B2A00020E946F010E956F400E966F000E976F2E
:100B3A00D2EC00F0010E946F060E956F750E966F4B
:100B4A00000E976FD2EC00F0020E946F060E956FAE
:100B5A006B0E966F000E976FD2EC00F0020E0B6EC2
:100B6A00040E0C6EBA0E0D6E0D2EFED70C2EFCD78F
:100B7A000B2EFAD7000054D0000E161802E1000E10
:100B8A00151808E1010E9B6F2EEC00F0010E156E90
:100B9A00000E166E010E946F010E956F630E966F1E
:100BAA00000E976FD2EC00F090C094F077EC01F051
:100BBA0000C05DF090C094F011EC01F000C05EF04E
:100BCA008EC094F077EC01F000C060F08EC094F013
:100BDA0011EC01F000C061F0010E946F080E956FE0
:100BEA005D0E966F000E976FD2EC00F0030E0B6E3F
:100BFA00080E0C6E770E0D6E0D2EFED70C2EFCD73E
:100C0A000B2EFAD70DD0000E181802E1000E171895
:100C1A00D8B41AD7000E181802E1010E1718ACE062
:100C2A00946BBEEC01F000C086F0000E0001876FE5
:100C3A00010E946FBEEC01F000C089F0000E0001B5
:100C4A008A6F020E946FBEEC01F000C08BF0000EAA
:100C5A0000018C6F040E946FBEEC01F000C083F0AB
:100C6A00000E0001846F050E946FBEEC01F000C007
:100C7A0081F0000E0001826F060E946FBEEC01F047
:0E0C8A0000C07FF0000E0001806F30D4FFD755
:100D020010EE15F06A0E006E010E016E980EF66E70
:0E0D12000C0EF76E000EF86E18EC01F01200D9
:020C980000005A
:020C9A00000058
:100C9C002062793A2020527562612026204E6164D0
:030CAC00612000C4
:100CAF0020204469676974616C2020436C6F636B0B
:030CBF00202000F2
:010CC2000031
:060CC300446174653A0073
:060CC90054696D653A005C
:100CCF002020202020414C41524D21202020202047
:010CDF000014
:060CE00030303A30300014
:080CE600416C61726D3A2000BF
:090CEE0030302D30302D30300083
:010CF70000FC
:090CF80030303A30303A3030005F
:010D010000F1
:020000040030CA
:0E000000000C1F1EFF8381FF0FC00FE00F409A
:00000001FF
