:020000040000FA
:04000000F9EF0CF018
:100800000054656D706F6D3A25780020452578207D
:100810004625780054696D3A25783A0025782000FD
:0B0820002D257800414D00504D0000D8
:10082C0095909592938E060E0001BB6F050EBC6FD2
:10083C00720ED36E06EC0DF08FEC0CF027EC0DF075
:10084C00000E026E0A0E016E56EC0BF0000E00014B
:10085C00CE6F010ECD6F000ECC6F000ECB6F000E65
:10086C00CA6F000EC96F000EC86F010EC76F000E65
:10087C00C66F000EC56F000EC46F000EC36FCD5156
:10088C00CE11D8B44CEF04F04EEF04F02AEF05F083
:10089C00000E7BEC0BF031EC0DF0BBC072F0010ED6
:1008AC000001736F000E746F722B60EF04F0D89020
:1008BC0073377437722F5DEF04F00001D751731743
:1008CC00D851741773517411D8B46FEF04F071EFE1
:1008DC0004F0EAEF04F0BCC072F0010E736F000E6E
:1008EC00746F722B7DEF04F0D89073377437722FBE
:1008FC007AEF04F00001D7517317D8517417735164
:10090C007411D8B48CEF04F08EEF04F099EF04F06E
:10091C000E0E0B6E270E0C6E080E0D6E010EE1EC1A
:10092C000BF0A2EF04F00E0E0B6E240E0C6E080EE4
:10093C000D6E010EE1EC0BF01F0E0001D715D76FF9
:10094C00D86B930E606F000E616F1C0E626F080EF9
:10095C00636FDBC064F0DCC065F0E1EC0AF09D0E67
:10096C000001606F000E616F180E626F080E636FEE
:10097C00D9C064F0DAC065F0E1EC0AF0A70E000112
:10098C00606F000E616F140E626F080E636FD7C03C
:10099C0064F0D8C065F0E1EC0AF0000E0B6EA70E07
:1009AC000C6E000E0D6E000EE1EC0BF09D0E096E40
:1009BC00000E0A6E86EC0AF0930E096E000E0A6E9B
:1009CC0086EC0AF025EF05F03F0ED715D76FD86BE4
:1009DC00930E606F000E616F1C0E626F080E636FDA
:1009EC00DBC064F0DCC065F0E1EC0AF09D0E0001A8
:1009FC00606F000E616F180E626F080E636FD9C0C6
:100A0C0064F0DAC065F0E1EC0AF0A70E0001606F4B
:100A1C00000E616F140E626F080E636FD7C064F026
:100A2C00D8C065F0E1EC0AF0000E0B6EA70E0C6E50
:100A3C00000E0D6E000EE1EC0BF0DCEF04F0000E7E
:100A4C000001CE6F000ECD6F030E026EE80E016E2C
:100A5C0056EC0BF00001CD51CE11D8A438EF05F0B7
:100A6C003AEF05F045EF04F081BE3FEF05F041EFA2
:100A7C0005F052EF05F0000E026E320E016E56ECD0
:100A8C000BF0000E0001CA6F000EC96F000ECC6F88
:100A9C00000ECB6FC34BC42BC751C811D8B459EF40
:100AAC0005F05BEF05F05EEF05F08C805FEF05F075
:100ABC008C82DBC007F0DCC008F0C0EC0BF007C088
:100ACC00B1F008C0B2F0000E7BEC0BF031EC0DF085
:100ADC00DBC007F0DCC008F0C0EC0BF007500001E5
:100AEC00B15DB251800A726F0850800A7259D8B049
:100AFC0082EF05F084EF05F04BEF06F0CCBF90EFE2
:100B0C0005F0CC5109E13B0ECB5DD8A090EF05F080
:100B1C0092EF05F0A7EF05F0CBC001F0CCC002F0CE
:100B2C00000E046E3B0E036ECEEC09F0FF0E01249A
:100B3C000001CB6FFF0E0220CC6FC94BCA2B27ECE8
:100B4C000DF00001C751C811D8B4AFEF05F0B1EFEB
:100B5C0005F0C6EF05F0050ECB19CC11D8A4B9EFF2
:100B6C0005F0BBEF05F0DBEF05F0000ECC6F000ECF
:100B7C00CB6F000EC86F000EC76F8C90DBEF05F0CB
:100B8C00030ECB19CC11D8A4CEEF05F0D0EF05F0A5
:100B9C00DBEF05F0000ECC6F000ECB6F000EC86FB4
:100BAC00010EC76F8C92C54BC62BCB4BCC2BCBC03D
:100BBC0009F0CCC00AF0B5EC0AF009C0B3F00AC0D9
:100BCC00B4F0C9C009F0CAC00AF0B5EC0AF009C00B
:100BDC00B5F00AC0B6F0C5C009F0C6C00AF0B5EC55
:100BEC000AF009C0B7F00AC0B8F0C3C009F0C4C01D
:100BFC000AF0B5EC0AF009C0B9F00AC0BAF07F0EE1
:100C0C000001606F000E616F010E626F080E636F62
:100C1C00B5C064F0B6C065F0E1EC0AF0750E0001E9
:100C2C00606F000E616F200E626F080E636FB3C0B1
:100C3C0064F0B4C065F0E1EC0AF0890E0001606F5D
:100C4C00000E616F0B0E626F080E636FB7C064F01D
:100C5C00B8C065F0B9C066F0BAC067F0E1EC0AF054
:100C6C00000E0B6E7F0E0C6E000E0D6E020EE1EC84
:100C7C000BF0750E096E000E0A6E86EC0AF0890EEA
:100C8C00096E000E0A6E86EC0AF0000E0001CE6FA3
:100C9C00010ECD6F45EF04F000EF00F00001C2BF74
:100CAC005AEF06F05CEF06F05DEF06F05E92C2BF05
:100CBC006AEF06F0C25106E1C105D8B068EF06F044
:100CCC006AEF06F070EF06F0000E346E010E336E14
:100CDC0074EF06F0C1C033F0C2C034F0BFC035F0C1
:100CEC00C0C036F05EA87DEF06F07FEF06F083EF14
:100CFC0006F0FE0E3526FF0E36221EC037F01FC042
:100D0C0038F020C039F021C03AF022C03BF023C0AB
:100D1C003CF024C03DF025C03EF0000E406E1F0E8E
:100D2C003F6E000EFC6F4EEF07F03F06D8A040065A
:100D3C000F0E3714416E426A42BEAEEF06F04250BF
:100D4C0009E10A0E415CD8A0AEEF06F0B0EF06F058
:100D5C00B8EF06F0570E4124416E000E4220426E51
:100D6C00BEEF06F0300E4124416E000E4220426E62
:100D7C00BF0E276EFF0E286E2650296E2A6A27504A
:100D8C00292628502A222A500AE11A0E295CD8A0BA
:100D9C00D2EF06F0D5EF06F0010ED6EF06F0000EFE
:100DAC002F6E306A2F503010D8B4DFEF06F0E1EF21
:100DBC0006F011EF07F09F0E276EFF0E286E200E27
:100DCC004110296E000E42102A6E275029262850F9
:100DDC002A222A500AE11A0E295CD8A0F8EF06F054
:100DEC00FBEF06F0010EFCEF06F0000E316E326ADE
:100DFC0031503210D8B405EF07F007EF07F011EFC0
:100E0C0007F041C007F042C008F057EC0AF007C0E9
:100E1C0041F008C042F0DD0E3F24D96E000E402098
:100E2C00DA6E41C0DFFF3306D8A034063506D8A0F1
:100E3C00360637C027F038C028F039C029F03AC040
:100E4C002AF03BC02BF03CC02CF03DC02DF03EC036
:100E5C002EF0050E3BEF07F0D8902E322D322C32AF
:100E6C002B322A32293228322732E82E32EF07F081
:100E7C0027C037F028C038F029C039F02AC03AF022
:100E8C002BC03BF02CC03CF02DC03DF02EC03EF0F2
:100E9C0040BE5AEF07F0405009E1020E3F5CD8A06B
:100EAC005AEF07F05CEF07F08CEF07F03750381073
:100EBC0039103A103B103C103D103E10D8A469EF8D
:100ECC0007F06BEF07F09BEF06F034BE78EF07F0FE
:100EDC00345006E13304D8B076EF07F078EF07F022
:100EEC009BEF06F036BE83EF07F0365008E1350471
:100EFC00D8A083EF07F085EF07F08CEF07F05EB218
:100F0C008AEF07F08CEF07F09BEF06F05EA891EFED
:100F1C0007F093EF07F0A9EF07F03F06D8A04006C3
:100F2C00DD0E3F24D96E000E4020DA6E26C0DFFFA6
:100F3C003F06D8A04006DD0E3F24D96E000E40209F
:100F4C00DA6E300EDF6E1CC011F01DC012F0DD0E1B
:100F5C003F24136E000E4020146E35C015F036C0C1
:100F6C0016F06DEC09F011C01CF012C01DF012004F
:100F7C0045C0D9FF46C0DAFFDECFF6FFDDCFF7FF65
:100F8C000800F550250AD8A4CEEF07F0D0EF07F0F3
:100F9C008AEF08F045C0D9FF46C0DAFFDE2A000E02
:100FAC00DD22000E0001C06F000EBF6FBFC05EF0EF
:100FBC00C0C05FF0C169C26945C0D9FF46C0DAFF45
:100FCC00DECFF6FFDDCFF7FF0800F550780AD8B476
:100FDC00F2EF07F0F4EF07F006EF08F045C0D9FF89
:100FEC0046C0DAFFDECFF6FFDDCFF7FF0800F55085
:100FFC00580AD8A404EF08F006EF08F054EF08F0F4
:10100C0045C0D9FF46C0DAFFDECFF6FFDDCFF7FFD4
:10101C000800F5CF55F045C0D9FF46C0DAFFDE2AEF
:10102C00000EDD2247C0D9FF48C0DAFFDFCF49F000
:10103C00020EDE26DFCF4AF0000EDD2249C0D9FFBA
:10104C004AC0DAFFDECF4BF0DDCF4CF04BC04DF099
:10105C004CC04EF04F6A506A516A526A536A546AD5
:10106C0043C01CF044C01DF04DC01EF04EC01FF01C
:10107C004FC020F050C021F051C022F052C023F0DC
:10108C0053C024F054C025F055C026F054EC06F0A3
:10109C001CC043F01DC044F0A5EF08F045C0D9FFBB
:1010AC0046C0DAFFDECFF6FFDDCFF7FF0800F550C4
:1010BC00250AD8A464EF08F066EF08F07DEF08F07D
:1010CC0045C0D9FF46C0DAFFDE2A000EDD22000E35
:1010DC00026E250E016E43C003F044C004F0A6EC72
:1010EC0008F0000E446E010E436EA5EF08F045C0EB
:1010FC00D9FF46C0DAFFDE2A000EDD22000E446E58
:10110C00000E436EA5EF08F045C0D9FF46C0DAFFCC
:10111C00DECFF6FFDDCFF7FF0800F550016E026A57
:10112C0043C003F044C004F0A6EC08F045C0D9FF5E
:10113C0046C0DAFFDE2A000EDD2277EF08F012003F
:10114C0003500410D8B4ADEF08F0AFEF08F0B8EFCF
:10115C0008F003500410D8A4B6EF08F0B8EF08F06C
:10116C00BDEF08F0015044EC0DF00AEF09F020EE51
:10117C0004F00350D9260450DA22DE50DE10D8B425
:10118C00CAEF08F0CCEF08F0E7EF08F020EE04F01F
:10119C000350D9260450DA2210EE02F00350E12657
:1011AC000450E222DE50E65CE650800A096EDE5006
:1011BC00800A0958D8B0E5EF08F0E7EF08F00AEF1D
:1011CC0009F020EE02F00350D9260450DA22DECFCB
:1011DC0005F0DDCF06F003C0D9FF04C0DAFFDECF87
:1011EC0007F0DDCF08F005500724D96E0650082013
:1011FC00DA6E01C0DFFF20EE02F00350D926045056
:10120C00DA22DE2A000EDD221200000E066E04BE6B
:10121C0014EF09F012EF09F01AEF09F0036C041E39
:10122C00D8B0042A010E066E02BE21EF09F01FEFA2
:10123C0009F027EF09F0016C021ED8B0022A010E4A
:10124C00061A000E086E000E076E03500410D8B478
:10125C0032EF09F034EF09F05CEF09F0010E056E86
:10126C003CEF09F0D89003360436052A04AE41EF62
:10127C0009F043EF09F038EF09F0D890073608363B
:10128C000350015C04500258D8A04FEF09F051EF05
:10129C0009F056EF09F00350015E0450025A078022
:1012AC00D89004320332052E43EF09F00650D8B41F
:1012BC0062EF09F064EF09F068EF09F0076C081EA3
:1012CC00D8B0082A07C001F008C002F012005EA0D6
:1012DC0072EF09F074EF09F07EEF09F013C00AF019
:1012EC0014C00BF011C00CF012C00DF09EEC0BF002
:1012FC0016BE83EF09F085EF09F08BEF09F015C0EE
:10130C001AF016C01BF08FEF09F0000E1B6E000ECA
:10131C001A6E000E196E000E186EA1EF09F0000E79
:10132C00026E200E016E11C003F012C004F0A6EC88
:10133C0008F0184A192A1A50185C1950800A176EAE
:10134C001B50800A1758D8A0AEEF09F0B0EF09F087
:10135C0095EF09F05EB0B5EF09F0B7EF09F0C1EF0A
:10136C0009F013C00AF014C00BF011C00CF012C03D
:10137C000DF09EEC0BF013C001F014C002F074ECF5
:10138C000CF01A500124116E1B500220126E120028
:10139C00000E066E02BED7EF09F0D5EF09F0DDEFB7
:1013AC0009F0016C021ED8B0022A010E066E04BEB2
:1013BC00E4EF09F0E2EF09F0E8EF09F0036C041E2A
:1013CC00D8B0042A03500410D8B4EFEF09F0F1EFB1
:1013DC0009F015EF0AF0010E056EF9EF09F0D8903F
:1013EC0003360436052A04AEFEEF09F000EF0AF0CE
:1013FC00F5EF09F00350015C04500258D8A009EF36
:10140C000AF00BEF0AF00FEF0AF00350015E0450E4
:10141C00025AD89004320332052E00EF0AF006501F
:10142C00D8B41BEF0AF01DEF0AF021EF0AF0016CA3
:10143C00021ED8B0022A01C001F002C002F0120054
:10144C0058C05CF059C05DF0000E0001BE6F000E7C
:10145C00BD6F44EF0AF056C043F057C044F05C0E29
:10146C00456E000E466E5AC047F05BC048F0BEECAD
:10147C0007F043500001BD274450BE235CC0F6FF6B
:10148C005DC0F7FF0800F5500009D8A450EF0AF032
:10149C0052EF0AF031EF0AF0BDC056F0BEC057F063
:1014AC0012009F0E096EFF0E0A6E07C00BF008C0EB
:1014BC000CF009500B260A500C220C500AE11A0EA3
:1014CC000B5CD8A06CEF0AF06FEF0AF0010E70EF16
:1014DC000AF0000E0D6E0E6A0D500E10D8B479EF96
:1014EC000AF07BEF0AF081EF0AF05F0E0714076E2B
:1014FC00086A85EF0AF007C007F008C008F0120070
:10150C009CEF0AF009C0F6FF0AC0F7FFF86A070E55
:10151C00F76403D00800F55005D0F6CFE1FFF7CF04
:10152C00E2FFE7500AEC0BF0094A0A2A09C0F6FF61
:10153C000AC0F7FFF86A070EF76403D00800F550ED
:10154C0005D0F6CFE1FFF7CFE2FFE7500009D8A4B2
:10155C00B2EF0AF0B4EF0AF088EF0AF0120009C0FB
:10156C0001F00AC002F0000E046E0A0E036E0BECC2
:10157C0009F001C00BF002C00CF00B3A0C3AF00E63
:10158C000C160B500F0B0C12F00E0B1609C001F0C1
:10159C000AC002F0000E046E0A0E036ECEEC09F0C7
:1015AC0001500B240D6E02500C200E6E0DC009F074
:1015BC000EC00AF01200640E00016A6F000E6B6F11
:1015CC0060C06CF061C06DF0000E6F6F000E6E6F3E
:1015DC00000E716F000E706F6C0E566E000E576E13
:1015EC0062C058F063C059F06A0E5A6E000E5B6E02
:1015FC0026EC0AF000016E516025D96E6F51612105
:10160C00DA6E000EDF6E1200086E08C007F0F00EE6
:10161C0007168C500F0B07108C6E8C848C8600F088
:10162C008C96000E026E010E016E56EC0BF008C08B
:10163C0007F0073AF00E07168C500F0B07108C6E44
:10164C008C8600F08C96000E026E030E016E56EC2A
:10165C000BF01200086E08C007F0F00E07168C5045
:10166C000F0B07108C6E8C948C8600F08C96000EF1
:10167C00026E010E016E56EC0BF008C007F0073A33
:10168C00F00E07168C500F0B07108C6E8C8600F02A
:10169C008C96000E026E030E016E56EC0BF01200CF
:1016AC00000E046E000E036E6FEF0BF0000E066E54
:1016BC00000E056E054A062A065009E1A50E055CCA
:1016CC00D8A06BEF0BF06DEF0BF060EF0BF0034A53
:1016DC00042A0150035C02500458D8A078EF0BF098
:1016EC007AEF0BF05CEF0BF01200046ED00EA7EC4F
:1016FC000CF00450E8EC0CF0D10EBEEC0CF0000E2B
:10170C001FEC0CF0036E03500001DB6FDC6B000E62
:10171C001FEC0CF0036E03500001D96FDA6B010E55
:10172C001FEC0CF0036E03500001D76FD86B120046
:10173C00000E106E000E0F6EAFEF0BF00EC001F02E
:10174C00026A0CC003F00DC004F0A6EC08F00F4ABE
:10175C00102A0F500A24D96E10500B20DA6EDF506D
:10176C000E6E0E50D8A4BDEF0BF0BFEF0BF0A4EF34
:10177C000BF0120007C009F008C00AF0040E0B6E43
:10178C000A340A3209320B2EC6EF0BF0070E09147D
:10179C00016E026A000E046E0A0E036ED5EC0CF09C
:1017AC00075001240C6E085002200D6E0CC007F07F
:1017BC000DC008F012000E6E020E0E60E8EF0BF07A
:1017CC00EAEF0BF0F3EF0BF00B500F0B80090F6EE1
:1017DC000F5030EC0BF0FAEF0BF00B500F0BC00965
:1017EC000F6E0F5030EC0BF00CC009F00DC00AF06E
:1017FC0086EC0AF012009F0E036EFF0E046E200E94
:10180C000110056E000E0210066E035005260450E2
:10181C00062206500AE11A0E055CD8A018EF0CF04F
:10182C001BEF0CF0010E1CEF0CF0000E016E026AA7
:10183C001200016EC586C7A026EF0CF028EF0CF045
:10184C0021EF0CF0C9CF02F00150D8A430EF0CF00E
:10185C0032EF0CF036EF0CF01DEC0DF038EF0CF015
:10186C0013EC0DF03BEC0DF0025012009F0E036ECA
:10187C00FF0E046E01C005F002C006F003500526F1
:10188C000450062206500AE11A0E055CD8A051EF4E
:10189C000CF054EF0CF0010E55EF0CF0000E016E35
:1018AC00026A1200BF0E036EFF0E046E01C005F03B
:1018BC0002C006F0035005260450062206500AE129
:1018CC001A0E055CD8A06DEF0CF070EF0CF0010E49
:1018DC0071EF0CF0000E016E026A120001C003F0F1
:1018EC0002C004F07CEF0CF0014A022A01C0D9FFBF
:1018FC0002C0DAFFDF50D8A486EF0CF088EF0CF0B2
:10190C007AEF0CF00350015C016E04500258026E29
:10191C001200000E956E000E026E140E016E56EC47
:10192C000BF0020E30EC0BF0280E30EC0BF0010E2D
:10193C0030EC0BF00C0E30EC0BF0060E30EC0BF028
:10194C001200026EC580C5B0AEEF0CF0B0EF0CF01B
:10195C00A9EF0CF09E96C7B6B6EF0CF0B8EF0CF0F2
:10196C00BAEF0CF0BDEF0CF00250E8EC0CF01200EA
:10197C00026EC582C5B2C5EF0CF0C7EF0CF0C0EF1C
:10198C000CF09E96C7B6CDEF0CF0CFEF0CF0D1EF6C
:10199C000CF0D4EF0CF00250E8EC0CF012000150FB
:1019AC000302F3CF05F0F4CF06F001500402F3501C
:1019BC00062602500302F350062605C001F006C0AD
:1019CC0002F01200016E01C0C9FF3BEC0DF0C5AC7A
:1019DC00F2EF0CF0F4EF0CF0F7EF0CF0010EF8EF67
:1019EC000CF0020E120000EEBDF0400EEE6AE8069E
:1019FC00FDE15F6A5E6A000EF86E000116EF04F0FE
:101A0C0093809382500EC76E280EC66E000EC56E64
:101A1C00130EC86E9D869E961200C58AC588C5B8E1
:101A2C001AEF0DF01CEF0DF015EF0DF01200C59A2A
:101A3C00C588C5B824EF0DF026EF0DF01FEF0DF0A3
:101A4C001200010E30EC0BF0000E026E030E016E54
:101A5C0056EC0BF01200C584C5B437EF0DF039EF1E
:101A6C000DF032EF0DF0C75012009EA640EF0DF0B6
:0E1A7C0042EF0DF03BEF0DF09E9612001200AF
:020000040020DA
:08000000FFFFFFFFFFFFFFFF00
:020000040030CA
:0E00000001091F1EFF0181FF0FC00FE00F401E
:00000001FF
