:020000040000FA
:04000000DEEF0AF035
:100800000043616C2025782D0054696D3A25783AB3
:1008100000257820005765640054756500467269AC
:10082000004D6F6E0053756E00536174005468750F
:1008300000414D00504D0000060E0001B66F050E40
:10084000B76F20EEECF010EE73F0060EDBCFE3FF97
:10085000E806FCE2720ED36EC2EC0BF06BEC0BF010
:10086000EDEC0BF0000E026E0A0E016E36EC0AF093
:10087000030E026EE80E016E11EC0AF0000E5BEC46
:100880000AF0CFEC0BF0B6C070F0010E0001716FF2
:10089000000E726F702B50EF04F0D89071377237E2
:1008A000702F4DEF04F00001C6517117C751721738
:1008B00071517211D8B45FEF04F061EF04F0DAEF18
:1008C00004F0B7C070F0010E716F000E726F702BE4
:1008D0006DEF04F0D89071377237702F6AEF04F023
:1008E0000001C6517117C751721771517211D8B4F6
:1008F0007CEF04F07EEF04F089EF04F00E0E0B6E37
:10090000340E0C6E080E0D6E010EA0EC0AF092EF84
:1009100004F00E0E0B6E310E0C6E080E0D6E010EF5
:10092000A0EC0AF01F0E0001C615C66FC76B980E2B
:10093000606F000E616F110E626F080E636FCAC0A8
:1009400064F0CBC065F09CEC09F0A20E0001606F72
:10095000000E616F0D0E626F080E636FC8C064F009
:10096000C9C065F09CEC09F0AC0E0001606F000E90
:10097000616F090E626F080E636FC6C064F0C7C076
:1009800065F09CEC09F0000E0B6EAC0E0C6E000EC8
:100990000D6E000EA0EC0AF0A20E096E000E0A6E9B
:1009A00040EC09F0980E096E000E0A6E40EC09F05A
:1009B00015EF05F03F0EC615C66FC76B980E606F3A
:1009C000000E616F110E626F080E636FCAC064F093
:1009D000CBC065F09CEC09F0A20E0001606F000E28
:1009E000616F0D0E626F080E636FC8C064F0C9C0FE
:1009F00065F09CEC09F0AC0E0001606F000E616FB9
:100A0000090E626F080E636FC6C064F0C7C065F060
:100A10009CEC09F0000E0B6EAC0E0C6E000E0D6E11
:100A2000000EA0EC0AF0CCEF04F0030E6FEC09F01E
:100A3000CFEC0BF07A0E0001606F000E616F010EBB
:100A4000626F080E636FC2C064F0C3C065F09CECB7
:100A500009F0840E0001606F000E616F050E626F79
:100A6000080E636FC0C064F0C1C065F09CEC09F073
:100A70008E0E0001606F000E616F110E626F080E26
:100A8000636FBEC064F0BFC065F09CEC09F0000E5F
:100A90000B6E7A0E0C6E000E0D6E020EA0EC0AF0BC
:100AA000840E096E000E0A6E40EC09F08E0E096E7F
:100AB000000E0A6E40EC09F096EF05F0250E096E67
:100AC000080E0A6E40EC09F038EF04F0210E096EB2
:100AD000080E0A6E40EC09F038EF04F0190E096EAA
:100AE000080E0A6E40EC09F038EF04F0150E096E9E
:100AF000080E0A6E40EC09F038EF04F02D0E096E76
:100B0000080E0A6E40EC09F038EF04F01D0E096E75
:100B1000080E0A6E40EC09F038EF04F0290E096E59
:100B2000080E0A6E40EC09F038EF04F0730E000175
:100B3000C425D96E000EC521DA6EDF50706F716B5F
:100B40007151000AD8B4A7EF05F038EF04F07051E6
:100B5000460AD8B486EF05F00B0AD8B466EF05F064
:100B60001E0AD8B45EEF05F0070AD8B46EEF05F0A0
:100B7000030AD8B476EF05F0240AD8B48EEF05F056
:100B8000070AD8B47EEF05F038EF04F000EF00F06C
:100B90000001BDBFCEEF05F0D0EF05F0D1EF05F0BD
:100BA0005E92BDBFDEEF05F0BD5106E1BC05D8B0D9
:100BB000DCEF05F0DEEF05F0E4EF05F0000E346E3B
:100BC000010E336EE8EF05F0BCC033F0BDC034F069
:100BD000BAC035F0BBC036F05EA8F1EF05F0F3EF18
:100BE00005F0F7EF05F0FE0E3526FF0E36221EC08B
:100BF00037F01FC038F020C039F021C03AF022C0D1
:100C00003BF023C03CF024C03DF025C03EF0000E78
:100C1000406E1F0E3F6E000EEB6FC2EF06F03F06F8
:100C2000D8A040060F0E3714416E426A42BE22EF32
:100C300006F0425009E10A0E415CD8A022EF06F00E
:100C400024EF06F02CEF06F0570E4124416E000E03
:100C50004220426E32EF06F0300E4124416E000E0B
:100C60004220426EBF0E276EFF0E286E2650296E60
:100C70002A6A2750292628502A222A500AE11A0EC9
:100C8000295CD8A046EF06F049EF06F0010E4AEFC6
:100C900006F0000E2F6E306A2F503010D8B453EF8C
:100CA00006F055EF06F085EF06F09F0E276EFF0E5B
:100CB000286E200E4110296E000E42102A6E275019
:100CC000292628502A222A500AE11A0E295CD8A087
:100CD0006CEF06F06FEF06F0010E70EF06F0000EFD
:100CE000316E326A31503210D8B479EF06F07BEFB2
:100CF00006F085EF06F041C007F042C008F011ECA5
:100D000009F007C041F008C042F0CC0E3F24D96E74
:100D1000000E4020DA6E41C0DFFF3306D8A0340653
:100D20003506D8A0360637C027F038C028F039C0BD
:100D300029F03AC02AF03BC02BF03CC02CF03DC05B
:100D40002DF03EC02EF0050EAFEF06F0D8902E32FB
:100D50002D322C322B322A32293228322732E82EF9
:100D6000A6EF06F027C037F028C038F029C039F0C8
:100D70002AC03AF02BC03BF02CC03CF02DC03DF017
:100D80002EC03EF040BECEEF06F0405009E1020E0C
:100D90003F5CD8A0CEEF06F0D0EF06F000EF07F0F2
:100DA0003750381039103A103B103C103D103E10AF
:100DB000D8A4DDEF06F0DFEF06F00FEF06F034BE4B
:100DC000ECEF06F0345006E13304D8B0EAEF06F059
:100DD000ECEF06F00FEF06F036BEF7EF06F03650F8
:100DE00008E13504D8A0F7EF06F0F9EF06F000EFC0
:100DF00007F05EB2FEEF06F000EF07F00FEF06F02F
:100E00005EA805EF07F007EF07F01DEF07F03F06BC
:100E1000D8A04006CC0E3F24D96E000E4020DA6EDA
:100E200026C0DFFF3F06D8A04006CC0E3F24D96E77
:100E3000000E4020DA6E300EDF6E1CC011F01DC0B7
:100E400012F0CC0E3F24136E000E4020146E35C0FD
:100E500015F036C016F07FEC08F011C01CF012C07F
:100E60001DF0120045C0D9FF46C0DAFFDECFF6FF05
:100E7000DDCFF7FF0800F550250AD8A442EF07F0B0
:100E800044EF07F0FEEF07F045C0D9FF46C0DAFF98
:100E9000DE2A000EDD22000E0001BB6F000EBA6FCD
:100EA000BAC05EF0BBC05FF0BC69BD6945C0D9FF88
:100EB00046C0DAFFDECFF6FFDDCFF7FF0800F550C2
:100EC000780AD8B466EF07F068EF07F07AEF07F01A
:100ED00045C0D9FF46C0DAFFDECFF6FFDDCFF7FF12
:100EE0000800F550580AD8A478EF07F07AEF07F019
:100EF000C8EF07F045C0D9FF46C0DAFFDECFF6FFE6
:100F0000DDCFF7FF0800F5CF55F045C0D9FF46C04B
:100F1000DAFFDE2A000EDD2247C0D9FF48C0DAFF23
:100F2000DFCF49F0020EDE26DFCF4AF0000EDD22D1
:100F300049C0D9FF4AC0DAFFDECF4BF0DDCF4CF01D
:100F40004BC04DF04CC04EF04F6A506A516A526A25
:100F5000536A546A43C01CF044C01DF04DC01EF0DB
:100F60004EC01FF04FC020F050C021F051C022F001
:100F700052C023F053C024F054C025F055C026F0D1
:100F8000C8EC05F01CC043F01DC044F019EF08F098
:100F900045C0D9FF46C0DAFFDECFF6FFDDCFF7FF51
:100FA0000800F550250AD8A4D8EF07F0DAEF07F0CB
:100FB000F1EF07F045C0D9FF46C0DAFFDE2A000E88
:100FC000DD22000E026E250E016E43C003F044C008
:100FD00004F01AEC08F0000E446E010E436E19EF97
:100FE00008F045C0D9FF46C0DAFFDE2A000EDD2238
:100FF000000E446E000E436E19EF08F045C0D9FF95
:1010000046C0DAFFDECFF6FFDDCFF7FF0800F55070
:10101000016E026A43C003F044C004F01AEC08F009
:1010200045C0D9FF46C0DAFFDE2A000EDD22EBEF15
:1010300007F0120003500410D8B421EF08F023EF9A
:1010400008F02CEF08F003500410D8A42AEF08F0A1
:101050002CEF08F031EF08F0015004EC0CF07EEFBB
:1010600008F020EE04F00350D9260450DA22DE50B6
:10107000DE10D8B43EEF08F040EF08F05BEF08F068
:1010800020EE04F00350D9260450DA2210EE02F0CC
:101090000350E1260450E222DE50E65CE650800A6E
:1010A000096EDE50800A0958D8B059EF08F05BEF9E
:1010B00008F07EEF08F020EE02F00350D92604502D
:1010C000DA22DECF05F0DDCF06F003C0D9FF04C081
:1010D000DAFFDECF07F0DDCF08F005500724D96E28
:1010E00006500820DA6E01C0DFFF20EE02F0035048
:1010F000D9260450DA22DE2A000EDD2212005EA07C
:1011000084EF08F086EF08F090EF08F013C00AF0C3
:1011100014C00BF011C00CF012C00DF07EEC0AF000
:1011200016BE95EF08F097EF08F09DEF08F015C098
:101130001AF016C01BF0A1EF08F0000E1B6E000E97
:101140001A6E000E196E000E186EB3EF08F0000E46
:10115000026E200E016E11C003F012C004F01AECF2
:1011600008F0184A192A1A50185C1950800A176E8C
:101170001B50800A1758D8A0C0EF08F0C2EF08F043
:10118000A7EF08F05EB0C7EF08F0C9EF08F0D3EFA3
:1011900008F013C00AF014C00BF011C00CF012C01C
:1011A0000DF07EEC0AF013C001F014C002F050EC18
:1011B0000BF01A500124116E1B500220126E120007
:1011C00058C05CF059C05DF0000E0001B96F000E10
:1011D000B86FFEEF08F056C043F057C044F05C0E05
:1011E000456E000E466E5AC047F05BC048F032ECC8
:1011F00007F043500001B8274450B9235CC0F6FF04
:101200005DC0F7FF0800F5500009D8A40AEF09F007
:101210000CEF09F0EBEF08F0B8C056F0B9C057F08A
:1012200012009F0E096EFF0E0A6E07C00BF008C079
:101230000CF009500B260A500C220C500AE11A0E31
:101240000B5CD8A026EF09F029EF09F0010E2AEF78
:1012500009F0000E0D6E0E6A0D500E10D8B433EF6B
:1012600009F035EF09F03BEF09F05F0E0714076E48
:10127000086A3FEF09F007C007F008C008F0120045
:1012800056EF09F009C0F6FF0AC0F7FFF86A070E2B
:10129000F76403D00800F55005D0F6CFE1FFF7CF93
:1012A000E2FFE750C5EC09F0094A0A2A09C0F6FF37
:1012B0000AC0F7FFF86A070EF76403D00800F5507C
:1012C00005D0F6CFE1FFF7CFE2FFE7500009D8A441
:1012D0006CEF09F06EEF09F042EF09F01200046EB6
:1012E000D00E83EC0BF00450B1EC0BF0D10E9AEC65
:1012F0000BF0000EFBEC0AF0036E03500001C46F0C
:10130000C56B000EFBEC0AF0036E03500001C26FC8
:10131000C36B000EFBEC0AF0036E03500001C06FBC
:10132000C16B010EFBEC0AF0036E03500001BE6FAF
:10133000BF6BCFEC0BF01200640E0001686F000E63
:10134000696F60C06AF061C06BF0000E6D6F000ED7
:101350006C6F000E6F6F000E6E6F6A0E566E000E91
:10136000576E62C058F063C059F0680E5A6E000E96
:101370005B6EE0EC08F000016C516025D96E6D5198
:101380006121DA6E000EDF6E1200086E08C007F0F1
:10139000F00E07168C500F0B07108C6E8C808C840F
:1013A00000F08C94000E026E010E016E36EC0AF015
:1013B00008C007F0073AF00E07168C500F0B071005
:1013C0008C6E8C8400F08C94000E026E030E016E05
:1013D00036EC0AF01200086E08C007F0F00E07168F
:1013E0008C500F0B07108C6E8C908C8400F08C94BA
:1013F000000E026E010E016E36EC0AF008C007F016
:10140000073AF00E07168C500F0B07108C6E8C8469
:1014100000F08C94000E026E030E016E36EC0AF0A2
:101420001200000E046E000E036E2AEF0AF0000E8A
:10143000066E000E056E054A062A065009E1A50E45
:10144000055CD8A026EF0AF028EF0AF01BEF0AF09F
:10145000034A042A0150035C02500458D8A033EF19
:101460000AF035EF0AF017EF0AF01200000E046ED2
:10147000000E036E4FEF0AF0000E066E000E056EB2
:10148000054A062A065009E1A50E055CD8A04BEFD7
:101490000AF04DEF0AF040EF0AF0034A042A015027
:1014A000035C02500458D8A058EF0AF05AEF0AF033
:1014B0003CEF0AF01200046ED00E83EC0BF00450E7
:1014C000B1EC0BF0D10E9AEC0BF0000EFBEC0AF035
:1014D000036E03500001CA6FCB6B000EFBEC0AF0E9
:1014E000036E03500001C86FC96B010EFBEC0AF0DC
:1014F000036E03500001C66FC76B1200000E106E22
:10150000000E0F6E8FEF0AF00EC001F0026A0CC0E1
:1015100003F00DC004F01AEC08F00F4A102A0F5027
:101520000A24D96E10500B20DA6EDF500E6E0E506A
:10153000D8A49DEF0AF09FEF0AF084EF0AF01200A2
:101540000E6E020E0E60A7EF0AF0A9EF0AF0B2EFDE
:101550000AF00B500F0B80090F6E0F50EBEC09F0E7
:10156000B9EF0AF00B500F0BC0090F6E0F50EBECE8
:1015700009F00CC009F00DC00AF040EC09F01200AF
:101580009F0E036EFF0E046E200E0110056E000EFE
:101590000210066E035005260450062206500AE18A
:1015A0001A0E055CD8A0D7EF0AF0DAEF0AF0010EA8
:1015B000DBEF0AF0000E016E026A1200000EF66EFA
:1015C000180EF76E000EF86E00EEECF010EE07F05D
:1015D0000900F5CFEEFFE550E150FAE100EEB8F07A
:1015E000340EEE6AE806FDE15F6A5E6A000EF86E90
:1015F00000011CEF04F0016EC586C7A002EF0BF0DE
:1016000004EF0BF0FDEF0AF0C9CF02F00150D8A4AF
:101610000CEF0BF00EEF0BF012EF0BF0E3EC0BF016
:1016200014EF0BF0D9EC0BF0F7EC0BF002501200BA
:101630009F0E036EFF0E046E01C005F002C006F09F
:10164000035005260450062206500AE11A0E055CD6
:10165000D8A02DEF0BF030EF0BF0010E31EF0BF0B7
:10166000000E016E026A1200BF0E036EFF0E046EC2
:1016700001C005F002C006F0035005260450062202
:1016800006500AE11A0E055CD8A049EF0BF04CEFAA
:101690000BF0010E4DEF0BF0000E016E026A12000E
:1016A00001C003F002C004F058EF0BF0014A022A17
:1016B00001C0D9FF02C0DAFFDF50D8A462EF0BF0FF
:1016C00064EF0BF056EF0BF00350015C016E045019
:1016D0000258026E1200000E956E000E026E140E7D
:1016E000016E36EC0AF0020EEBEC09F0280EEBEC82
:1016F00009F0010EEBEC09F00C0EEBEC09F0060E14
:10170000EBEC09F01200026EC580C5B08AEF0BF059
:101710008CEF0BF085EF0BF09E96C7B692EF0BF0B7
:1017200094EF0BF096EF0BF099EF0BF00250B1EC49
:101730000BF01200026EC582C5B2A1EF0BF0A3EF51
:101740000BF09CEF0BF09E96C7B6A9EF0BF0ABEF3A
:101750000BF0ADEF0BF0B0EF0BF00250B1EC0BF073
:101760001200016E01C0C9FFF7EC0BF0C5ACBBEF76
:101770000BF0BDEF0BF0C0EF0BF0010EC1EF0BF063
:10178000020E120093809382500EC76E280EC66E12
:10179000000EC56E130EC86E9D869E961200C584FF
:1017A000C5B4D5EF0BF0D7EF0BF0D0EF0BF0C7506F
:1017B0001200C58AC588C5B8E0EF0BF0E2EF0BF068
:1017C000DBEF0BF01200C59AC588C5B8EAEF0BF045
:1017D000ECEF0BF0E5EF0BF01200010EEBEC09F073
:1017E000000E026E030E016E36EC0AF012009EA689
:1017F000FCEF0BF0FEEF0BF0F7EF0BF09E961200F4
:07180000534D545774467369
:021808001200CC
:020000040020DA
:08000000FFFFFFFFFFFFFFFF00
:020000040030CA
:0E00000000091F1EFF0181FF0FC00FE00F401F
:00000001FF
