:020000040000FA
:0400000048EF0DF0C8
:10080000002D2D2D2D44657363616E736F2D2D2D7D
:100810000054656D706F6D3A25780020452578206D
:100820004625780054696D3A25783A0025782000ED
:0B0830002D257800414D00504D0000C8
:10083C0093EC0DF0060E0001BB6F050EBC6F720E33
:10084C00D36E55EC0DF0DEEC0CF076EC0DF0000EEA
:10085C00026E0A0E016EA5EC0BF0000E0001CE6FBD
:10086C00010ECD6F000ECC6F000ECB6F000ECA6F59
:10087C00000EC96F000EC86F010EC76F000EC66F59
:10088C00000EC56F000EC46F000EC36FCD51CE119C
:10089C00D8B453EF04F055EF04F031EF05F0000E2F
:1008AC00CAEC0BF080EC0DF0BBC072F0010E000135
:1008BC00736F000E746F722B67EF04F0D890733760
:1008CC007437722F64EF04F00001D7517317D851AD
:1008DC00741773517411D8B476EF04F078EF04F0F8
:1008EC00F1EF04F0BCC072F0010E736F000E746F68
:1008FC00722B84EF04F0D89073377437722F81EF1A
:10090C0004F00001D7517317D85174177351741137
:10091C00D8B493EF04F095EF04F0A0EF04F00E0EB2
:10092C000B6E370E0C6E080E0D6E010E30EC0CF0CB
:10093C00A9EF04F00E0E0B6E340E0C6E080E0D6E3D
:10094C00010E30EC0CF01F0E0001D715D76FD86BD1
:10095C00890E606F000E616F2C0E626F080E636F54
:10096C00DBC064F0DCC065F030EC0BF0930E0001E2
:10097C00606F000E616F280E626F080E636FD9C036
:10098C0064F0DAC065F030EC0BF09D0E0001606F86
:10099C00000E616F240E626F080E636FD7C064F097
:1009AC00D8C065F030EC0BF0000E0B6E9D0E0C6E8B
:1009BC00000E0D6E000E30EC0CF0930E096E000E56
:1009CC000A6ED5EC0AF0890E096E000E0A6ED5EC93
:1009DC000AF02CEF05F03F0ED715D76FD86B890EA8
:1009EC00606F000E616F2C0E626F080E636FDBC0C0
:1009FC0064F0DCC065F030EC0BF0930E0001606F1E
:100A0C00000E616F280E626F080E636FD9C064F020
:100A1C00DAC065F030EC0BF09D0E0001606F000E3B
:100A2C00616F240E626F080E636FD7C064F0D8C07C
:100A3C0065F030EC0BF0000E0B6E9D0E0C6E000E84
:100A4C000D6E000E30EC0CF0E3EF04F0000E000124
:100A5C00CE6F000ECD6F030E026EE80E016EA5EC8C
:100A6C000BF00001CD51CE11D8A43FEF05F041EFB2
:100A7C0005F04CEF04F081BE46EF05F048EF05F0B1
:100A8C0059EF05F0000E026E320E016EA5EC0BF064
:100A9C00000E0001CA6F000EC96F000ECC6F000E65
:100AAC00CB6FC34BC42BC751C811D8B460EF05F042
:100ABC0062EF05F065EF05F08C8066EF05F08C8237
:100ACC00DBC007F0DCC008F00FEC0CF007C0B1F095
:100ADC0008C0B2F0000ECAEC0BF080EC0DF0DBC0DD
:100AEC0007F0DCC008F00FEC0CF007500001B15D12
:100AFC00B251800A726F0850800A7259D8B089EFCF
:100B0C0005F08BEF05F09AEF06F0CCBF97EF05F0F0
:100B1C00CC5109E13B0ECB5DD8A097EF05F099EFD6
:100B2C0005F0AEEF05F0CBC001F0CCC002F0000E2A
:100B3C00046E3B0E036E1DEC0AF0FF0E0124000147
:100B4C00CB6FFF0E0220CC6FC94BCA2B76EC0DF08D
:100B5C000001C751C811D8B4B6EF05F0B8EF05F0D5
:100B6C00CEEF05F0050ECB19CC11D8A4C0EF05F0D3
:100B7C00C2EF05F0E4EF05F0000ECC6F000ECB6F6A
:100B8C00000EC86F000EC76F8C908C82E4EF05F0DE
:100B9C00030ECB19CC11D8A4D6EF05F0D8EF05F085
:100BAC00E4EF05F0000ECC6F000ECB6F000EC86F9B
:100BBC00010EC76F8C928C80C54BC62BCB51CC11C0
:100BCC00D8A4EBEF05F0EDEF05F029EF06F0C751D7
:100BDC00C811D8A4F4EF05F0F6EF05F029EF06F0F4
:100BEC0076EC0DF0A70E0001606F000E616F010E28
:100BFC00626F080E636F30EC0BF0000E0B6EA70EDD
:100C0C000C6E000E0D6E000E30EC0CF0030E026E2E
:100C1C00E80E016EA5EC0BF076EC0DF0030E026EF7
:100C2C00E80E016EA5EC0BF0000E0B6EA70E0C6E11
:100C3C00000E0D6E000E30EC0CF0030E026EE80E82
:100C4C00016EA5EC0BF0CBC009F0CCC00AF004ECA3
:100C5C000BF009C0B3F00AC0B4F00001CB4BCC2BA5
:100C6C00C9C009F0CAC00AF004EC0BF009C0B5F019
:100C7C000AC0B6F0C5C009F0C6C00AF004EC0BF00F
:100C8C0009C0B7F00AC0B8F0C3C009F0C4C00AF07C
:100C9C0004EC0BF009C0B9F00AC0BAF0A70E0001C1
:100CAC00606F000E616F110E626F080E636FB5C03E
:100CBC0064F0B6C065F030EC0BF0750E0001606F9F
:100CCC00000E616F300E626F080E636FB3C064F07C
:100CDC00B4C065F030EC0BF07F0E0001606F000EBD
:100CEC00616F1B0E626F080E636FB7C064F0B8C003
:100CFC0065F0B9C066F0BAC067F030EC0BF0000ECE
:100D0C000B6EA70E0C6E000E0D6E020E30EC0CF07E
:100D1C00750E096E000E0A6ED5EC0AF07F0E096E88
:100D2C00000E0A6ED5EC0AF0000E0001CE6F010E1B
:100D3C00CD6F4CEF04F000EF00F00001C2BFA9EF43
:100D4C0006F0ABEF06F0ACEF06F05E92C2BFB9EF67
:100D5C0006F0C25106E1C105D8B0B7EF06F0B9EF05
:100D6C0006F0BFEF06F0000E346E010E336EC3EFCB
:100D7C0006F0C1C033F0C2C034F0BFC035F0C0C003
:100D8C0036F05EA8CCEF06F0CEEF06F0D2EF06F010
:100D9C00FE0E3526FF0E36221EC037F01FC038F06F
:100DAC0020C039F021C03AF022C03BF023C03CF007
:100DBC0024C03DF025C03EF0000E406E1F0E3F6E6D
:100DCC00000EFC6F9DEF07F03F06D8A040060F0EFB
:100DDC003714416E426A42BEFDEF06F0425009E103
:100DEC000A0E415CD8A0FDEF06F0FFEF06F007EF0E
:100DFC0007F0570E4124416E000E4220426E0DEF5B
:100E0C0007F0300E4124416E000E4220426EBF0EA0
:100E1C00276EFF0E286E2650296E2A6A2750292627
:100E2C0028502A222A500AE11A0E295CD8A021EF58
:100E3C0007F024EF07F0010E25EF07F0000E2F6EE0
:100E4C00306A2F503010D8B42EEF07F030EF07F087
:100E5C0060EF07F09F0E276EFF0E286E200E4110DC
:100E6C00296E000E42102A6E2750292628502A225D
:100E7C002A500AE11A0E295CD8A047EF07F04AEF76
:100E8C0007F0010E4BEF07F0000E316E326A315055
:100E9C003210D8B454EF07F056EF07F060EF07F0BC
:100EAC0041C007F042C008F0A6EC0AF007C041F0C0
:100EBC0008C042F0DD0E3F24D96E000E4020DA6EE1
:100ECC0041C0DFFF3306D8A034063506D8A036065D
:100EDC0037C027F038C028F039C029F03AC02AF0C2
:100EEC003BC02BF03CC02CF03DC02DF03EC02EF092
:100EFC00050E8AEF07F0D8902E322D322C322B3281
:100F0C002A32293228322732E82E81EF07F027C007
:100F1C0037F028C038F029C039F02AC03AF02BC07D
:100F2C003BF02CC03CF02DC03DF02EC03EF040BE3E
:100F3C00A9EF07F0405009E1020E3F5CD8A0A9EFE1
:100F4C0007F0ABEF07F0DBEF07F037503810391034
:100F5C003A103B103C103D103E10D8A4B8EF07F0EF
:100F6C00BAEF07F0EAEF06F034BEC7EF07F03450E3
:100F7C0006E13304D8B0C5EF07F0C7EF07F0EAEF8E
:100F8C0006F036BED2EF07F0365008E13504D8A093
:100F9C00D2EF07F0D4EF07F0DBEF07F05EB2D9EF3A
:100FAC0007F0DBEF07F0EAEF06F05EA8E0EF07F0E2
:100FBC00E2EF07F0F8EF07F03F06D8A04006DD0E91
:100FCC003F24D96E000E4020DA6E26C0DFFF3F06AC
:100FDC00D8A04006DD0E3F24D96E000E4020DA6EFC
:100FEC00300EDF6E1CC011F01DC012F0DD0E3F2460
:100FFC00136E000E4020146E35C015F036C016F07E
:10100C00BCEC09F011C01CF012C01DF0120045C060
:10101C00D9FF46C0DAFFDECFF6FFDDCFF7FF0800C1
:10102C00F550250AD8A41DEF08F01FEF08F0D9EFF2
:10103C0008F045C0D9FF46C0DAFFDE2A000EDD22DB
:10104C00000E0001C06F000EBF6FBFC05EF0C0C0CD
:10105C005FF0C169C26945C0D9FF46C0DAFFDECF77
:10106C00F6FFDDCFF7FF0800F550780AD8B441EF52
:10107C0008F043EF08F055EF08F045C0D9FF46C023
:10108C00DAFFDECFF6FFDDCFF7FF0800F550580A88
:10109C00D8A453EF08F055EF08F0A3EF08F045C0C3
:1010AC00D9FF46C0DAFFDECFF6FFDDCFF7FF080031
:1010BC00F5CF55F045C0D9FF46C0DAFFDE2A000E49
:1010CC00DD2247C0D9FF48C0DAFFDFCF49F0020E5E
:1010DC00DE26DFCF4AF0000EDD2249C0D9FF4AC020
:1010EC00DAFFDECF4BF0DDCF4CF04BC04DF04CC0F7
:1010FC004EF04F6A506A516A526A536A546A43C03E
:10110C001CF044C01DF04DC01EF04EC01FF04FC06F
:10111C0020F050C021F051C022F052C023F053C037
:10112C0024F054C025F055C026F0A3EC06F01CC0EA
:10113C0043F01DC044F0F4EF08F045C0D9FF46C0A1
:10114C00DAFFDECFF6FFDDCFF7FF0800F550250AFA
:10115C00D8A4B3EF08F0B5EF08F0CCEF08F045C019
:10116C00D9FF46C0DAFFDE2A000EDD22000E026E29
:10117C00250E016E43C003F044C004F0F5EC08F0FA
:10118C00000E446E010E436EF4EF08F045C0D9FF1B
:10119C0046C0DAFFDE2A000EDD22000E446E000E81
:1011AC00436EF4EF08F045C0D9FF46C0DAFFDECF3E
:1011BC00F6FFDDCFF7FF0800F550016E026A43C061
:1011CC0003F044C004F0F5EC08F045C0D9FF46C06C
:1011DC00DAFFDE2A000EDD22C6EF08F01200035003
:1011EC000410D8B4FCEF08F0FEEF08F007EF09F09C
:1011FC0003500410D8A405EF09F007EF09F00CEF29
:10120C0009F0015097EC0DF059EF09F020EE04F0C5
:10121C000350D9260450DA22DE50DE10D8B419EF70
:10122C0009F01BEF09F036EF09F020EE04F0035043
:10123C00D9260450DA2210EE02F00350E1260450B5
:10124C00E222DE50E65CE650800A096EDE50800A2F
:10125C000958D8B034EF09F036EF09F059EF09F01E
:10126C0020EE02F00350D9260450DA22DECF05F02E
:10127C00DDCF06F003C0D9FF04C0DAFFDECF07F0E4
:10128C00DDCF08F005500724D96E06500820DA6E21
:10129C0001C0DFFF20EE02F00350D9260450DA2201
:1012AC00DE2A000EDD221200000E066E04BE63EF75
:1012BC0009F061EF09F069EF09F0036C041ED8B076
:1012CC00042A010E066E02BE70EF09F06EEF09F0F3
:1012DC0076EF09F0016C021ED8B0022A010E061A34
:1012EC00000E086E000E076E03500410D8B481EF88
:1012FC0009F083EF09F0ABEF09F0010E056E8BEFEF
:10130C0009F0D89003360436052A04AE90EF09F0A4
:10131C0092EF09F087EF09F0D890073608360350A2
:10132C00015C04500258D8A09EEF09F0A0EF09F020
:10133C00A5EF09F00350015E0450025A0780D890C3
:10134C0004320332052E92EF09F00650D8B4B1EFF7
:10135C0009F0B3EF09F0B7EF09F0076C081ED8B02D
:10136C00082A07C001F008C002F012005EA0C1EF0D
:10137C0009F0C3EF09F0CDEF09F013C00AF014C067
:10138C000BF011C00CF012C00DF0EDEC0BF016BE12
:10139C00D2EF09F0D4EF09F0DAEF09F015C01AF02A
:1013AC0016C01BF0DEEF09F0000E1B6E000E1A6E5D
:1013BC00000E196E000E186EF0EF09F0000E026EA2
:1013CC00200E016E11C003F012C004F0F5EC08F011
:1013DC00184A192A1A50185C1950800A176E1B509B
:1013EC00800A1758D8A0FDEF09F0FFEF09F0E4EFE1
:1013FC0009F05EB004EF0AF006EF0AF010EF0AF005
:10140C0013C00AF014C00BF011C00CF012C00DF098
:10141C00EDEC0BF013C001F014C002F0C3EC0CF0B7
:10142C001A500124116E1B500220126E1200000E75
:10143C00066E02BE26EF0AF024EF0AF02CEF0AF03B
:10144C00016C021ED8B0022A010E066E04BE33EFE8
:10145C000AF031EF0AF037EF0AF0036C041ED8B033
:10146C00042A03500410D8B43EEF0AF040EF0AF0FF
:10147C0064EF0AF0010E056E48EF0AF0D8900336BF
:10148C000436052A04AE4DEF0AF04FEF0AF044EF94
:10149C000AF00350015C04500258D8A058EF0AF02F
:1014AC005AEF0AF05EEF0AF00350015E0450025A44
:1014BC00D89004320332052E4FEF0AF00650D8B400
:1014CC006AEF0AF06CEF0AF070EF0AF0016C021E82
:1014DC00D8B0022A01C001F002C002F0120058C0BC
:1014EC005CF059C05DF0000E0001BE6F000EBD6FC8
:1014FC0093EF0AF056C043F057C044F05C0E456EB3
:10150C00000E466E5AC047F05BC048F00DEC08F078
:10151C0043500001BD274450BE235CC0F6FF5DC0A4
:10152C00F7FF0800F5500009D8A49FEF0AF0A1EFCF
:10153C000AF080EF0AF0BDC056F0BEC057F01200A2
:10154C009F0E096EFF0E0A6E07C00BF008C00CF060
:10155C0009500B260A500C220C500AE11A0E0B5C97
:10156C00D8A0BBEF0AF0BEEF0AF0010EBFEF0AF0F5
:10157C00000E0D6E0E6A0D500E10D8B4C8EF0AF0A6
:10158C00CAEF0AF0D0EF0AF05F0E0714076E086A74
:10159C00D4EF0AF007C007F008C008F01200EBEF18
:1015AC000AF009C0F6FF0AC0F7FFF86A070EF764E5
:1015BC0003D00800F55005D0F6CFE1FFF7CFE2FFDE
:1015CC00E75059EC0BF0094A0A2A09C0F6FF0AC089
:1015DC00F7FFF86A070EF76403D00800F55005D042
:1015EC00F6CFE1FFF7CFE2FFE7500009D8A401EFF7
:1015FC000BF003EF0BF0D7EF0AF0120009C001F06B
:10160C000AC002F0000E046E0A0E036E5AEC09F0CA
:10161C0001C00BF002C00CF00B3A0C3AF00E0C1699
:10162C000B500F0B0C12F00E0B1609C001F00AC078
:10163C0002F0000E046E0A0E036E1DEC0AF001504F
:10164C000B240D6E02500C200E6E0DC009F00EC056
:10165C000AF01200640E00016A6F000E6B6F60C01E
:10166C006CF061C06DF0000E6F6F000E6E6F000EAF
:10167C00716F000E706F6C0E566E000E576E62C05E
:10168C0058F063C059F06A0E5A6E000E5B6E75EC22
:10169C000AF000016E516025D96E6F516121DA6E2E
:1016AC00000EDF6E1200086E08C007F0F00E071671
:1016BC008C500F0B07108C6E8C848C8600F08C96E3
:1016CC00000E026E010E016EA5EC0BF008C007F0C7
:1016DC00073AF00E07168C500F0B07108C6E8C8689
:1016EC0000F08C96000E026E030E016EA5EC0BF052
:1016FC001200086E08C007F0F00E07168C500F0B86
:10170C0007108C6E8C948C8600F08C96000E026EFA
:10171C00010E016EA5EC0BF008C007F0073AF00EB5
:10172C0007168C500F0B07108C6E8C8600F08C9665
:10173C00000E026E030E016EA5EC0BF01200000EF3
:10174C00046E000E036EBEEF0BF0000E066E000E64
:10175C00056E054A062A065009E1A50E055CD8A0BF
:10176C00BAEF0BF0BCEF0BF0AFEF0BF0034A042A0F
:10177C000150035C02500458D8A0C7EF0BF0C9EF1E
:10178C000BF0ABEF0BF01200046ED00EF6EC0CF07D
:10179C00045037EC0DF0D10E0DEC0DF0000E6EEC8C
:1017AC000CF0036E03500001DB6FDC6B000E6EEC73
:1017BC000CF0036E03500001D96FDA6B010E6EEC66
:1017CC000CF0036E03500001D76FD86B1200000EA3
:1017DC00106E000E0F6EFEEF0BF00EC001F0026AE1
:1017EC000CC003F00DC004F0F5EC08F00F4A102A01
:1017FC000F500A24D96E10500B20DA6EDF500E6E8B
:10180C000E50D8A40CEF0CF00EEF0CF0F3EF0BF025
:10181C00120007C009F008C00AF0040E0B6E0A345F
:10182C000A3209320B2E15EF0CF0070E0914016E5B
:10183C00026A000E046E0A0E036E24EC0DF00750C3
:10184C0001240C6E085002200D6E0CC007F00DC068
:10185C0008F012000E6E020E0E6037EF0CF039EF2E
:10186C000CF042EF0CF00B500F0B80090F6E0F5069
:10187C007FEC0BF049EF0CF00B500F0BC0090F6E07
:10188C000F507FEC0BF00CC009F00DC00AF0D5EC3A
:10189C000AF012009F0E036EFF0E046E200E011054
:1018AC00056E000E0210066E03500526045006222B
:1018BC0006500AE11A0E055CD8A067EF0CF06AEF2F
:1018CC000CF0010E6BEF0CF0000E016E026A1200B0
:1018DC00016EC586C7A075EF0CF077EF0CF070EFBA
:1018EC000CF0C9CF02F00150D8A47FEF0CF081EFBF
:1018FC000CF085EF0CF06CEC0DF087EF0CF062EC5B
:10190C000DF08AEC0DF0025012009F0E036EFF0ECC
:10191C00046E01C005F002C006F003500526045009
:10192C00062206500AE11A0E055CD8A0A0EF0CF0B6
:10193C00A3EF0CF0010EA4EF0CF0000E016E026A86
:10194C001200BF0E036EFF0E046E01C005F002C044
:10195C0006F0035005260450062206500AE11A0E22
:10196C00055CD8A0BCEF0CF0BFEF0CF0010EC0EF83
:10197C000CF0000E016E026A120001C003F002C0EE
:10198C0004F0CBEF0CF0014A022A01C0D9FF02C0CF
:10199C00DAFFDF50D8A4D5EF0CF0D7EF0CF0C9EF7D
:1019AC000CF00350015C016E04500258026E1200E0
:1019BC00000E956E000E026E140E016EA5EC0BF06F
:1019CC00020E7FEC0BF0280E7FEC0BF0010E7FEC7F
:1019DC000BF00C0E7FEC0BF0060E7FEC0BF01200F4
:1019EC00026EC580C5B0FDEF0CF0FFEF0CF0F8EF08
:1019FC000CF09E96C7B605EF0DF007EF0DF009EF52
:101A0C000DF00CEF0DF0025037EC0DF01200026EE1
:101A1C00C582C5B214EF0DF016EF0DF00FEF0DF0FF
:101A2C009E96C7B61CEF0DF01EEF0DF020EF0DF0DB
:101A3C0023EF0DF0025037EC0DF0120001500302B1
:101A4C00F3CF05F0F4CF06F001500402F350062654
:101A5C0002500302F350062605C001F006C002F046
:101A6C001200016E01C0C9FF8AEC0DF0C5AC41EF4C
:101A7C000DF043EF0DF046EF0DF0010E47EF0DF0BA
:101A8C00020E120000EEBDF0400EEE6AE806FDE11B
:101A9C005F6A5E6A000EF86E00011EEF04F0938020
:101AAC009382500EC76E280EC66E000EC56E130EB6
:101ABC00C86E9D869E961200C58AC588C5B869EF0A
:101ACC000DF06BEF0DF064EF0DF01200C59AC588A8
:101ADC00C5B873EF0DF075EF0DF06EEF0DF0120051
:101AEC00010E7FEC0BF0000E026E030E016EA5ECE6
:101AFC000BF01200C584C5B486EF0DF088EF0DF025
:101B0C0081EF0DF0C75012009EA68FEF0DF091EFF4
:101B1C000DF08AEF0DF09E96120095909592938E93
:041B2C001200120091
:020000040020DA
:08000000FFFFFFFFFFFFFFFF00
:020000040030CA
:0E00000001091F1EFF0181FF0FC00FE00F401E
:00000001FF
