:020000040000FA
:040000002CEF0DF0E4
:10080000002D2D2D2D44657363616E736F2D2D2D7D
:100810002D0020452578204625780054696D3A251D
:10082000783A0054656D703A257800257820002DBF
:10083000257800414D00504D0000A1EC0DF0060E52
:100840000001C56F050EC66F720ED36E63EC0DF01E
:10085000E6EC0CF084EC0DF0000E026E0A0E016E58
:10086000ADEC0BF0000E0001D86F010ED76F000E3B
:10087000D66F000ED56F000ED46F000ED36F000E32
:10088000D26F010ED16F000ED06F000ECF6F000E31
:10089000CE6F000ECD6FD751D811D8B452EF04F0FF
:1008A00054EF04F030EF05F0000ED2EC0BF08EECBC
:1008B0000DF0C5C072F0010E0001736F000E746F71
:1008C000722B66EF04F0D89073377437722F63EF92
:1008D00004F00001E1517317E25174177351741160
:1008E000D8B475EF04F077EF04F0F0EF04F0C6C071
:1008F00072F0010E736F000E746F722B83EF04F0B1
:10090000D89073377437722F80EF04F00001E151F3
:100910007317E251741773517411D8B492EF04F045
:1009200094EF04F09FEF04F00E0E0B6E360E0C6E7B
:10093000080E0D6E010E38EC0CF0A8EF04F00E0E50
:100940000B6E330E0C6E080E0D6E010E38EC0CF0B3
:100950001F0E0001E115E16FE26B9D0E606F000E4E
:10096000616F2B0E626F080E636FE5C064F0E6C026
:1009700065F038EC0BF0A70E0001606F000E616FA0
:100980001F0E626F080E636FE3C064F0E4C065F091
:1009900038EC0BF0B10E0001606F000E616F1B0EA2
:1009A000626F080E636FE1C064F0E2C065F038EC7E
:1009B0000BF0000E0B6EB10E0C6E000E0D6E000EE5
:1009C00038EC0CF0A70E096E000E0A6EDDEC0AF092
:1009D0009D0E096E000E0A6EDDEC0AF02BEF05F09D
:1009E0003F0EE115E16FE26B9D0E606F000E616FCF
:1009F0002B0E626F080E636FE5C064F0E6C065F011
:100A000038EC0BF0A70E0001606F000E616F1F0E37
:100A1000626F080E636FE3C064F0E4C065F038EC09
:100A20000BF0B10E0001606F000E616F1B0E626F64
:100A3000080E636FE1C064F0E2C065F038EC0BF0C3
:100A4000000E0B6EB10E0C6E000E0D6E000E38EC2B
:100A50000CF0E2EF04F0000E0001D86F000ED76F2B
:100A6000030E026EE80E016EADEC0BF00001D751E3
:100A7000D811D8A43EEF05F040EF05F04BEF04F09D
:100A800081BE45EF05F047EF05F058EF05F0000E89
:100A9000026E320E016EADEC0BF0000E0001D46F51
:100AA000000ED36F000ED66F000ED56FCD4BCE2B40
:100AB000D151D211D8B45FEF05F061EF05F064EFCA
:100AC00005F08C8065EF05F08C82E5C007F0E6C08C
:100AD00008F017EC0CF007C0BBF008C0BCF0000E2B
:100AE000D2EC0BF08EEC0DF0E5C007F0E6C008F09C
:100AF00017EC0CF007500001BB5DBC51800A726F0F
:100B00000850800A7259D8B088EF05F08AEF05F0D6
:100B1000A1EF06F0D6BF96EF05F0D65109E13C0EE5
:100B2000D55DD8A096EF05F098EF05F0ABEF05F096
:100B3000D5C001F0D6C002F0000E046E3C0E036E6C
:100B400025EC0AF001C0D5F002C0D6F00001D34B6D
:100B5000D42B84EC0DF00001D151D211D8B4B3EFF5
:100B600005F0B5EF05F0CFEF05F00A0ED519D61157
:100B7000D8A4BDEF05F0BFEF05F0E9EF05F0000EDA
:100B8000D46F000ED36F000ED66F000ED56F000E1F
:100B9000D26F000ED16F8C908C82E9EF05F0050EBC
:100BA000D519D611D8A4D7EF05F0D9EF05F0E9EFA4
:100BB00005F0000ED46F000ED36F000ED66F000E3E
:100BC000D56F000ED26F010ED16F8C928C80CF4BFF
:100BD000D02BD551D611D8A4F0EF05F0F2EF05F0E7
:100BE00030EF06F0D151D211D8A4F9EF05F0FBEFA8
:100BF00005F030EF06F084EC0DF0930E0001606F0D
:100C0000000E616F010E626F080E636F38EC0BF01F
:100C1000000E0B6E930E0C6E000E0D6E000E38EC77
:100C20000CF0030E026EE80E016EADEC0BF084ECDE
:100C30000DF0030E026EE80E016EADEC0BF0000E2F
:100C40000B6E930E0C6E000E0D6E000E38EC0CF059
:100C5000030E026EE80E016EADEC0BF084EC0DF0AD
:100C6000D5C009F0D6C00AF00CEC0BF009C0BDF0FD
:100C70000AC0BEF00001D54BD62BD3C009F0D4C0BA
:100C80000AF00CEC0BF009C0BFF00AC0C0F0CFC0F6
:100C900009F0D0C00AF00CEC0BF009C0C1F00AC09A
:100CA000C2F0CDC009F0CEC00AF00CEC0BF009C0C8
:100CB000C3F00AC0C4F07F0E0001606F000E616FC8
:100CC000230E626F080E636FBFC064F0C0C065F092
:100CD00038EC0BF0750E0001606F000E616F2F0E87
:100CE000626F080E636FBDC064F0BEC065F038EC83
:100CF0000BF0890E0001606F000E616F120E626FC3
:100D0000080E636FC1C064F0C2C065F0C3C066F076
:100D1000C4C067F038EC0BF0000E0B6E7F0E0C6E4B
:100D2000000E0D6E020E38EC0CF0750E096E000E02
:100D30000A6EDDEC0AF0890E096E000E0A6EDDEC1B
:100D40000AF0000E0001D86F010ED76F4BEF04F0D0
:100D500000EF00F00001CCBFB0EF06F0B2EF06F0FC
:100D6000B3EF06F05E92CCBFC0EF06F0CC5106E1C7
:100D7000CB05D8B0BEEF06F0C0EF06F0C6EF06F028
:100D8000000E346E010E336ECAEF06F0CBC033F0A6
:100D9000CCC034F0C9C035F0CAC036F05EA8D3EF7D
:100DA00006F0D5EF06F0D9EF06F0FE0E3526FF0E61
:100DB00036221EC037F01FC038F020C039F021C0E5
:100DC0003AF022C03BF023C03CF024C03DF025C0E7
:100DD0003EF0000E406E1F0E3F6E000E01011F6FB1
:100DE000A5EF07F03F06D8A040060F0E3714416E5E
:100DF000426A42BE05EF07F0425009E10A0E415C2B
:100E0000D8A005EF07F007EF07F00FEF07F0570E38
:100E10004124416E000E4220426E15EF07F0300E65
:100E20004124416E000E4220426EBF0E276EFF0E1F
:100E3000286E2650296E2A6A2750292628502A22F1
:100E40002A500AE11A0E295CD8A029EF07F02CEFEE
:100E500007F0010E2DEF07F0000E2F6E306A2F50B5
:100E60003010D8B436EF07F038EF07F068EF07F02E
:100E70009F0E276EFF0E286E200E4110296E000E69
:100E800042102A6E2750292628502A222A500AE189
:100E90001A0E295CD8A04FEF07F052EF07F0010EB1
:100EA00053EF07F0000E316E326A31503210D8B471
:100EB0005CEF07F05EEF07F068EF07F041C007F066
:100EC00042C008F0AEEC0AF007C041F008C042F0A2
:100ED000000E3F24D96E010E4020DA6E41C0DFFFC4
:100EE0003306D8A034063506D8A0360637C027F01A
:100EF00038C028F039C029F03AC02AF03BC02BF0A6
:100F00003CC02CF03DC02DF03EC02EF0050E92EFFF
:100F100007F0D8902E322D322C322B322A32293241
:100F200028322732E82E89EF07F027C037F028C093
:100F300038F029C039F02AC03AF02BC03BF02CC061
:100F40003CF02DC03DF02EC03EF040BEB1EF07F0AA
:100F5000405009E1020E3F5CD8A0B1EF07F0B3EFBB
:100F600007F0E3EF07F03750381039103A103B1014
:100F70003C103D103E10D8A4C0EF07F0C2EF07F0C0
:100F8000F2EF06F034BECFEF07F0345006E1330441
:100F9000D8B0CDEF07F0CFEF07F0F2EF06F036BE96
:100FA000DAEF07F0365008E13504D8A0DAEF07F0A1
:100FB000DCEF07F0E3EF07F05EB2E1EF07F0E3EFFD
:100FC00007F0F2EF06F05EA8E8EF07F0EAEF07F0AF
:100FD00000EF08F03F06D8A04006000E3F24D96E6F
:100FE000010E4020DA6E26C0DFFF3F06D8A0400683
:100FF000000E3F24D96E010E4020DA6E300EDF6EF7
:101000001CC011F01DC012F0000E3F24136E010E23
:101010004020146E35C015F036C016F0C4EC09F04F
:1010200011C01CF012C01DF0120045C0D9FF46C00F
:10103000DAFFDECFF6FFDDCFF7FF0800F550250A17
:10104000D8A425EF08F027EF08F0E1EF08F045C03D
:10105000D9FF46C0DAFFDE2A000EDD22000E0001B5
:10106000CA6F000EC96FC9C05EF0CAC05FF0CB691D
:10107000CC6945C0D9FF46C0DAFFDECFF6FFDDCF31
:10108000F7FF0800F550780AD8B449EF08F04BEFA5
:1010900008F05DEF08F045C0D9FF46C0DAFFDECFAB
:1010A000F6FFDDCFF7FF0800F550580AD8A45BEF34
:1010B00008F05DEF08F0ABEF08F045C0D9FF46C07F
:1010C000DAFFDECFF6FFDDCFF7FF0800F5CF55F0F2
:1010D00045C0D9FF46C0DAFFDE2A000EDD2247C038
:1010E000D9FF48C0DAFFDFCF49F0020EDE26DFCF9E
:1010F0004AF0000EDD2249C0D9FF4AC0DAFFDECF38
:101100004BF0DDCF4CF04BC04DF04CC04EF04F6A71
:10111000506A516A526A536A546A43C01CF044C010
:101120001DF04DC01EF04EC01FF04FC020F050C04B
:1011300021F051C022F052C023F053C024F054C01B
:1011400025F055C026F0AAEC06F01CC043F01DC0E7
:1011500044F0FCEF08F045C0D9FF46C0DAFFDECF0F
:10116000F6FFDDCFF7FF0800F550250AD8A4BBEF46
:1011700008F0BDEF08F0D4EF08F045C0D9FF46C035
:10118000DAFFDE2A000EDD22000E026E250E016E51
:1011900043C003F044C004F0FDEC08F0000E446EC0
:1011A000010E436EFCEF08F045C0D9FF46C0DAFFE0
:1011B000DE2A000EDD22000E446E000E436EFCEFB0
:1011C00008F045C0D9FF46C0DAFFDECFF6FFDDCF1D
:1011D000F7FF0800F550016E026A43C003F044C0F7
:1011E00004F0FDEC08F045C0D9FF46C0DAFFDE2A66
:1011F000000EDD22CEEF08F0120003500410D8B428
:1012000004EF09F006EF09F00FEF09F003500410A6
:10121000D8A40DEF09F00FEF09F014EF09F0015019
:10122000A5EC0DF061EF09F020EE04F00350D92693
:101230000450DA22DE50DE10D8B421EF09F023EF9B
:1012400009F03EEF09F020EE04F00350D9260450D7
:10125000DA2210EE02F00350E1260450E222DE50C2
:10126000E65CE650800A096EDE50800A0958D8B064
:101270003CEF09F03EEF09F061EF09F020EE02F0DB
:101280000350D9260450DA22DECF05F0DDCF06F078
:1012900003C0D9FF04C0DAFFDECF07F0DDCF08F0CE
:1012A00005500724D96E06500820DA6E01C0DFFF12
:1012B00020EE02F00350D9260450DA22DE2A000E76
:1012C000DD221200000E066E04BE6BEF09F069EF1E
:1012D00009F071EF09F0036C041ED8B0042A010E66
:1012E000066E02BE78EF09F076EF09F07EEF09F0A6
:1012F000016C021ED8B0022A010E061A000E086EFA
:10130000000E076E03500410D8B489EF09F08BEF7C
:1013100009F0B3EF09F0010E056E93EF09F0D890D4
:1013200003360436052A04AE98EF09F09AEF09F067
:101330008FEF09F0D890073608360350015C04504F
:101340000258D8A0A6EF09F0A8EF09F0ADEF09F018
:101350000350015E0450025A0780D89004320332D1
:10136000052E9AEF09F00650D8B4B9EF09F0BBEF9B
:1013700009F0BFEF09F0076C081ED8B0082A07C0B3
:1013800001F008C002F012005EA0C9EF09F0CBEF37
:1013900009F0D5EF09F013C00AF014C00BF011C02A
:1013A0000CF012C00DF0F5EC0BF016BEDAEF09F000
:1013B000DCEF09F0E2EF09F015C01AF016C01BF0DF
:1013C000E6EF09F0000E1B6E000E1A6E000E196E8D
:1013D000000E186EF8EF09F0000E026E200E016E7E
:1013E00011C003F012C004F0FDEC08F0184A192AED
:1013F0001A50185C1950800A176E1B50800A175833
:10140000D8A005EF0AF007EF0AF0ECEF09F05EB0A4
:101410000CEF0AF00EEF0AF018EF0AF013C00AF012
:1014200014C00BF011C00CF012C00DF0F5EC0BF075
:1014300013C001F014C002F0CBEC0CF01A500124E0
:10144000116E1B500220126E1200000E066E02BEBC
:101450002EEF0AF02CEF0AF034EF0AF0016C021EB6
:10146000D8B0022A010E066E04BE3BEF0AF039EF37
:101470000AF03FEF0AF0036C041ED8B0042A0350B0
:101480000410D8B446EF0AF048EF0AF06CEF0AF007
:10149000010E056E50EF0AF0D89003360436052A87
:1014A00004AE55EF0AF057EF0AF04CEF0AF0035084
:1014B000015C04500258D8A060EF0AF062EF0AF015
:1014C00066EF0AF00350015E0450025AD8900432CD
:1014D0000332052E57EF0AF00650D8B472EF0AF027
:1014E00074EF0AF078EF0AF0016C021ED8B0022AFD
:1014F00001C001F002C002F0120058C05CF059C0F7
:101500005DF0000E0001C86F000EC76F9BEF0AF080
:1015100056C043F057C044F05C0E456E000E466E58
:101520005AC047F05BC048F015EC08F0435000018A
:10153000C7274450C8235CC0F6FF5DC0F7FF080012
:10154000F5500009D8A4A7EF0AF0A9EF0AF088EF38
:101550000AF0C7C056F0C8C057F012009F0E096EBF
:10156000FF0E0A6E07C00BF008C00CF009500B26E6
:101570000A500C220C500AE11A0E0B5CD8A0C3EFE3
:101580000AF0C6EF0AF0010EC7EF0AF0000E0D6E6A
:101590000E6A0D500E10D8B4D0EF0AF0D2EF0AF058
:1015A000D8EF0AF05F0E0714076E086ADCEF0AF046
:1015B00007C007F008C008F01200F3EF0AF009C0F6
:1015C000F6FF0AC0F7FFF86A070EF76403D00800B9
:1015D000F55005D0F6CFE1FFF7CFE2FFE75061EC21
:1015E0000BF0094A0A2A09C0F6FF0AC0F7FFF86A99
:1015F000070EF76403D00800F55005D0F6CFE1FFE1
:10160000F7CFE2FFE7500009D8A409EF0BF00BEF8A
:101610000BF0DFEF0AF0120009C001F00AC002F07F
:10162000000E046E0A0E036E62EC09F001C00BF0AE
:1016300002C00CF00B3A0C3AF00E0C160B500F0BCC
:101640000C12F00E0B1609C001F00AC002F0000ED9
:10165000046E0A0E036E25EC0AF001500B240D6E89
:1016600002500C200E6E0DC009F00EC00AF01200E0
:10167000640E00016A6F000E6B6F60C06CF061C099
:101680006DF0000E6F6F000E6E6F000E716F000E2A
:10169000706F6C0E566E000E576E62C058F063C0CD
:1016A00059F06A0E5A6E000E5B6E7DEC0AF0000176
:1016B0006E516025D96E6F516121DA6E000EDF6EBA
:1016C0001200086E08C007F0F00E07168C500F0BC2
:1016D00007108C6E8C848C8600F08C96000E026E47
:1016E000010E016EADEC0BF008C007F0073AF00EEA
:1016F00007168C500F0B07108C6E8C8600F08C96A2
:10170000000E026E030E016EADEC0BF01200086EBF
:1017100008C007F0F00E07168C500F0B07108C6EE8
:101720008C948C8600F08C96000E026E010E016E79
:10173000ADEC0BF008C007F0073AF00E07168C501E
:101740000F0B07108C6E8C8600F08C96000E026ECC
:10175000030E016EADEC0BF01200000E046E000ED5
:10176000036EC6EF0BF0000E066E000E056E054A06
:10177000062A065009E1A50E055CD8A0C2EF0BF0C1
:10178000C4EF0BF0B7EF0BF0034A042A0150035CDF
:1017900002500458D8A0CFEF0BF0D1EF0BF0B3EF0D
:1017A0000BF01200046ED00EFEEC0CF0045052EC64
:1017B0000DF0D10E15EC0DF0000E76EC0CF0036E72
:1017C00003500001E56FE66B000E76EC0CF0036E43
:1017D00003500001E36FE46B010E76EC0CF0036E36
:1017E00003500001E16FE26B1200000E106E000E5C
:1017F0000F6E06EF0CF00EC001F0026A0CC003F091
:101800000DC004F0FDEC08F00F4A102A0F500A2416
:10181000D96E10500B20DA6EDF500E6E0E50D8A429
:1018200014EF0CF016EF0CF0FBEF0BF0120007C0FA
:1018300009F008C00AF0040E0B6E0A340A320932AD
:101840000B2E1DEF0CF0070E0914016E026A000E3C
:10185000046E0A0E036E3FEC0DF0075001240C6E6F
:10186000085002200D6E0CC007F00DC008F01200E9
:101870000E6E020E0E603FEF0CF041EF0CF04AEFDF
:101880000CF00B500F0B80090F6E0F5087EC0BF014
:1018900051EF0CF00B500F0BC0090F6E0F5087EC7F
:1018A0000BF00CC009F00DC00AF0DDEC0AF01200DC
:1018B0009F0E036EFF0E046E200E0110056E000ECB
:1018C0000210066E035005260450062206500AE157
:1018D0001A0E055CD8A06FEF0CF072EF0CF0010E41
:1018E00073EF0CF0000E016E026A1200016EC586E5
:1018F000C7A07DEF0CF07FEF0CF078EF0CF0C9CFB4
:1019000002F00150D8A487EF0CF089EF0CF08DEFB6
:101910000CF07AEC0DF08FEF0CF070EC0DF098EC11
:101920000DF0025012009F0E036EFF0E046E01C0F8
:1019300005F002C006F003500526045006220650AA
:101940000AE11A0E055CD8A0A8EF0CF0ABEF0CF082
:10195000010EACEF0CF0000E016E026A1200BF0E19
:10196000036EFF0E046E01C005F002C006F00350C6
:1019700005260450062206500AE11A0E055CD8A07E
:10198000C4EF0CF0C7EF0CF0010EC8EF0CF0000E26
:10199000016E026A120001C003F002C004F0D3EF2E
:1019A0000CF0014A022A01C0D9FF02C0DAFFDF5061
:1019B000D8A4DDEF0CF0DFEF0CF0D1EF0CF003500A
:1019C000015C016E04500258026E1200000E956E0A
:1019D000000E026E140E016EADEC0BF0020E87ECE1
:1019E0000BF0280E87EC0BF0010E87EC0BF00C0EC1
:1019F00087EC0BF0060E87EC0BF01200026EC58030
:101A0000C5B005EF0DF007EF0DF000EF0DF09E965D
:101A1000C7B60DEF0DF00FEF0DF011EF0DF014EF55
:101A20000DF0025052EC0DF01200026EC582C5B2EC
:101A30001CEF0DF01EEF0DF017EF0DF09E96C7B6E0
:101A400024EF0DF026EF0DF028EF0DF02BEF0DF049
:101A5000025052EC0DF0120001EE00F0200EEE6A82
:101A6000E806FDE100EEC7F0200EEE6AE806FDE1B3
:101A70005F6A5E6A000EF86E00011DEF04F001500F
:101A80000302F3CF05F0F4CF06F001500402F35047
:101A9000062602500302F350062605C001F006C0D8
:101AA00002F01200016E01C0C9FF98EC0DF0C5AC48
:101AB0005CEF0DF05EEF0DF061EF0DF0010E62EFE7
:101AC0000DF0020E120093809382500EC76E280E06
:101AD000C66E000EC56E130EC86E9D869E961200D1
:101AE000C58AC588C5B877EF0DF079EF0DF072EFB4
:101AF0000DF01200C59AC588C5B881EF0DF083EFCF
:101B00000DF07CEF0DF01200010E87EC0BF0000ED3
:101B1000026E030E016EADEC0BF01200C584C5B46D
:101B200094EF0DF096EF0DF08FEF0DF0C75012000F
:101B30009EA69DEF0DF09FEF0DF098EF0DF09E9695
:0C1B4000120095909592938E12001200F6
:020000040020DA
:08000000FFFFFFFFFFFFFFFF00
:020000040030CA
:0E00000001091F1EFF0181FF0FC00FE00F401E
:00000001FF
